:020000040000FA
:060000000201070220B31B
:0300130002239530
:03002B0002231598
:030033000222F7AF
:03003B0002233667
:0300530002212661
:03006B000222D19D
:10008300021F1FE5C754F84401F5C7790122000098
:100093000080FB120086B900030200F1E4791A78AC
:1000A30002B800028004F709D8FCE4791C7802B88E
:1000B30000028004F709D8FCE490028178A6790E47
:1000C3008002F0A3D8FCD9FA7A267B109001377806
:1000D300EB79018015E493A3AD82AE838A828B838F
:1000E300F0A3AA82AB838D828E83D8E9D9E7758288
:1000F300AC7583FF740112011975829175830074C5
:100103000012011975D00075813F751881751902A8
:10011300759F00020096C09FF59FE473D09F22D085
:1001230083D082C09FE493C0E0740193C0E0740263
:1001330093F59F229B03AD03D703A103FF0000B4F4
:10014300000028002800283075A000A000A000A00F
:100153000000080008E001F000100010001000107B
:10016300001000100050005000500010001000D08C
:10017300070000000000000F0001000500307507B4
:10018300001000010081FF00000000FF020202EBEB
:1001930081010000DC8102E5810100007E1002DFA5
:1001A30081010000B20202E5810100007F1002F527
:1001B30081010000C802FFFF0100FF2002EB810163
:1001C3000000D98102E581010000AD1002E7810042
:1001D3000000000002E381030000A503F70AF70A09
:1001E300F70AF70AF70AF70AF70AF70AF70AF70A04
:1001F300F70AF70AF70ACB0CE90CC50CFFFF01E875
:1002030003053F10020A01FF000110278813FEFFB8
:1002130050002003F401000000000200000012015E
:1002230022BCC903120122D2C90312012201CA034B
:1002330012012237CA031201224ECA031201228578
:10024300CA03120122D8CA03120122EFCA03120100
:100253002206CB031201224BFE0212012262FE028E
:1002630012012293FE02120122CEFE02120122F893
:10027300FE0212012222FF0212012239FF021201A1
:100283002250FF0212012267FF0212012290FF0295
:10029300120122A3FF02120122B9FF02120122E37B
:1002A300FF021201227EB80212012282B902120158
:1002B30022AFB90212012205BA0212012228BA02A0
:1002C3001201223CBA021201223EBA021201226139
:1002D300BA0212012270BB0212012234BC021201C3
:1002E3002209BD021201227ABD0212012206BE02B8
:1002F30012012209BE0212012291BE02120122CC76
:10030300BE0212012233BF021201226ABF0212018E
:1003130022F8BF0212012282C002120122D1C002BE
:10032300120122DEC002120122E1C00212012241A7
:10033300C1021201224CC102120122CBC1021201DD
:1003430022CEC102120122E1C102120122E4C10242
:1003530012012273C2021201228DC2021201229DD6
:10036300C202120122CDC202120122DAC20212011A
:1003730022DDC2021201225EC3021201224CC40218
:10038300120122FEC402120122C5CF02120122C2AF
:10039300D00212012244D10212012264D1021201BD
:1003A30022ACD102120122FFD10212012263D20236
:1003B300120122F0D202120122AAD302120122B99F
:1003C300D60212012244D80212012267D802120176
:1003D300221FB003120122BCB10312012220B20377
:1003E3001201227FB2031201228DB203120122B63F
:1003F300B203120122408B03120122688B03120104
:1004030022968B03120122CD8B031201222B8C0324
:10041300120122768C03120122C18C0312012201E4
:100423008D03120122478D03120122758D031201E0
:1004330022328E031201223C8E03120122498E03C3
:100443001201227C8E03120122488F0312012254CF
:100453008F031201226C8F03120122768F03120184
:1004630022F48F0312012279D00312012287D003D1
:100473001201229FD003120122B7D003120122CF0F
:10048300D003120122008002120122AC8002120169
:10049300222781021201224882021201228482024F
:1004A3001201222D830212012214840212012278E6
:1004B3008502120122CF8502120122508602120107
:1004C300224087021201228D870212012213880221
:1004D300120122458802120122598A021201229B2B
:1004E3008A02120122B98A021201225B8B021201D3
:1004F30022238C02120122308E02120122CAB3037C
:10050300120122E0B30312012206B40312012222D4
:10051300B5031201222CB50312012261B6031201A5
:100523002259B703120122879A031201222B9B033C
:100533001201225E9B03120122A89B031201226B6C
:100543009D03120122C8AD0112012241AE01120125
:100553002251AE011201223FAF0112012264AF0109
:100563001201226FAF0112012259B0011201220FB1
:10057300B101120122F6B201120122AFB40112013C
:10058300228BB5011201223FB6011201227CB9016F
:100593001201222ABA0112012299BB011201221966
:1005A300BD01120122C0BD0112012209BE011201C7
:1005B3002240BE01120122DDBE0112012268BF01E9
:1005C3001201226FD001120122C4D0011201222391
:1005D300D20112012233D20112012260D20112018F
:1005E30022B7D20112012260D30112012267D40182
:1005F30012012231D50112012291D601120122D416
:10060300D60112012279D7011201229FD7011201CB
:1006130022ADD901120122B2D901120122B7DB01A5
:1006230012012204DC0112012277DC01120122AA49
:10063300DC011201224CDD01120122F5DD01120160
:10064300222DDE0112012230DE0112012278DE01A9
:10065300120122BADE0112012211DF011201222549
:10066300BE0312012238BE0312012246BE03120149
:10067300228EBE03120122A4BE03120122EBBE038B
:10068300120122FFBF031201228CC003120122D7E1
:10069300C0031201226F5F001201227F5F0012016B
:1006A30022E25F00120122276000120122DD6000B6
:1006B300120122B86100120122E16100120122112C
:1006C30062001201225164001201223866001201F5
:1006D30022106800120122546900120122BB6B0030
:1006E300120122C96C001201221B6E001201222585
:1006F3006F00120122676F001201229F6F00120127
:1007030022C16F00120122247000120122E674003C
:100713001201227B7500120122CF7500120122F60D
:100723007500120122347600120122537600120161
:1007330022AD7600120122AD770012012232780039
:1007430012012277F80212012281F80212012229F2
:10075300F9021201226CF90212012287F902120135
:100763002217FA021201223FFA0212012277FA0239
:10077300120122AEFA02120122D7FA021201221149
:10078300FB0212012226FB02120122F3FB021201D9
:100793002216FC0212012238FC021201224DFC0235
:1007A300120122D3FC021201220DFD021201228545
:1007B300FD02120122CEFD02120122F8FD021201F6
:1007C3002223FE0212012271CC03120122498E025E
:1007D300120122778E02120122D28F02120122B25B
:1007E3009002120122D190021201224E91021201B3
:1007F300229191021201220C93021201227B930295
:10080300120122A695021201222A9802120122DB6A
:100813009802120122D19902120122719A02120145
:10082300226F9B02120122FA9B021201221ECB03AA
:1008330012012287CB03120122DBCB031201220A0E
:10084300CC031201222BCC03120122089F031201B5
:1008530022759F03120122BC9F03120122D4A0031D
:10086300120122D0A103120122B3A20312012260BA
:10087300EB02120122A2EB021201227BEC02120113
:100883002275ED0212012257EE02120122C0EE027E
:10089300120122DCEF0212012248F0021201224B64
:1008A300F00212012274F002120122EEF002120190
:1008B3002293F102120122A8F102120122EEF102A7
:1008C30012012207F2021201220AF202120122632A
:1008D300B7031201229FB703120122DDB7031201EE
:1008E30022A7B80312012216B90312012251B90338
:1008F3001201228FB903120122BFB903120122E6AA
:10090300B90312012254BA0312012296BA03120147
:1009130022F88101120122178401120122FA8501B2
:100923001201223686011201226386011201222A54
:100933008701120122758701120122C0870112016A
:1009430022D2870112012212880112012246880154
:10095300120122948801120122C58801120122E8A2
:1009630088011201226F8901120122578A011201A3
:1009730022448B011201223D8C011201224C8E0173
:10098300120122EE93011201223E9401120122B5BB
:10099300960112012201C103120122B6C203120100
:1009A3002298420012012247430012012291430080
:1009B300120122C744001201225D4600120122D215
:1009C300460012012213470012012265470012015B
:1009D30022D648001201221B4B00120122154C00A3
:1009E300120122344C00120122534C0012012256F0
:1009F3004C00120122874D001201227F4E0012018A
:100A0300226B4F00120122DB4F001201224D5000D6
:100A1300120122D45000120122AF5100120122848C
:100A23005200120122635300120122EE53001201FD
:100A3300225C5400120122D05400120122FB540004
:100A4300120122BA5500120122A75800120122F006
:100A53005800120122335900120122AC590012012D
:100A630022445A00120122355B001201225A5B0014
:100A7300120122A05B00120122CA5B0012012212A2
:100A83005C001201228D5C00120122E75C0012015E
:100A930022505E00120122FE5E001201223F5F001F
:100AA300120122AAAA02120122F8AA0212012204A6
:100AB300AB02120122E2AB0212012213AC021201B9
:100AC3002244AC02120122C4AC02120122FCAC0289
:100AD3001201224EAD021201228BAD02120122A895
:100AE300AF02120122CEB102120122B9B3021201E6
:100AF30022A3B502120122F67F0012012200800315
:100B03001201224B84031201228F85031201226AF0
:100B1300EE0112012222F10112012228F101120138
:100B230022E2F301120122AFF6011201227C9003AB
:100B3300120122209103120122F291031201221CBD
:100B430092031201226A9403120122B824001201B3
:100B530022022500120122433300120122C834006D
:100B6300120122EB35001201225C3C0012012257D4
:100B73003D00120122943D00120122B73D001201F3
:100B830022F93D00120122033E00120122F13E0030
:100B9300120122E73F00120122804000120122DEEF
:100BA300BA03120122D8BB031201224CBC03120167
:100BB300228ABC03120122FEBC0312012277BD0369
:100BC30012012280BD031201228CBD03120122A156
:100BD300BD03120122DFBD03120122F5BD03120181
:100BE300222EF2021201223BF20212012255F202DC
:100BF30012012294F202120122D2F20212012237CE
:100C0300F3021201224CF30212012263F3021201D6
:100C13002271F30212012280F30212012295F302E0
:100C2300120122AAF302120122B5F302120122C118
:100C3300F302120122CEF302120122DDF3021201AA
:100C430022E8F3021201220DF402120122B4F4028B
:100C5300120122C9F402120122DEF402120122F867
:100C6300F40212012213F50212012230F5021201DD
:100C7300223BF502120122F7F502120122E3F602EA
:100C830012012208F70212012213F702120122288D
:100C9300F7021201223CF7021201229DF702120110
:100CA30022A3F702120122A9F702120122AFF702CF
:100CB300120122C7F702120122FAF7021201226F70
:100CC300C50212012291C50212012271C60212014C
:100CD3002248C90212012274CA0212012298CB02CD
:100CE3001201224ACC02120122EBCC021201228011
:100CF3009C02120122049D02120122B39D021201E1
:100D030022129F0212012233A1021201221FA20208
:100D130012012254A20212012276A20212012225FA
:100D2300A3021201221DA50212012246A5021201ED
:100D330022D8A5021201220AA60212012217A60234
:100D43001201226EA60212012294A60212012201AE
:100D5300A90212012204AA021201225CAA021201B0
:100D630022FEDF0112012208E101120122EFE1015B
:100D7300120122F9E1011201221BE20112012227D1
:100D8300E201120122C0E301120122EFE301120189
:100D9300220BE50112012264E501120122CAE601D8
:100DA300120122A9E70112012205E80112012272B0
:100DB300E801120122ADE801120122ECE80112015F
:100DC30022A5EB01120122BFEB011201224BEC0120
:100DD30012012259EC01120122B2EC01120122C0CC
:100DE300EC0112012233ED0112012297ED011201F0
:100DF30022E1ED011201220BC50312012230C503CA
:100E0300120122A2C503120122997800120122A223
:100E13007800120122AB78001201228279001201BC
:100E230022337B00120122697B00120122A37B0083
:100E3300120122D97B00120122137C0012012247E6
:100E43007C00120122737C00120122BC7C0012017F
:100E530022F67C001201223F7D00120122977D00C1
:100E6300120122CC7D00120122277E001201226191
:100E73007E00120122B27E00120122E87E001201DE
:100E830022227F00120122457F001201221ED2037B
:100E93001201224AD203120122A5D203120122AF68
:100EA300D203120122BFD203120122D285031201FF
:100EB30022DC85031201221A8603120122638603B0
:100EC3001201229D8603120122F7860312012218C2
:100ED3008703120122218703120122728703120161
:100EE300229B8703120122A5870312012211880383
:100EF3001201229F8803120122ED8803120122238B
:100F03008903120122AA8903120122EA8903120129
:100F130022228A03120122348A03120122538A03F2
:100F23001201225C8A03120122168B031201228E04
:100F3300CE031201220CC30312012242C303120186
:100F43002278C303120122D1C403120122E6D4037F
:100F5300120122FCD40312012206D503120122013D
:100F6300AC031201221AAC03120122BEAC0312011C
:100F730022FEAC0312012217AD031201224BAD0373
:100F830012012298AD03120122CCAD031201220EED
:100F9300AE0312012212B00312012250D503120133
:100FA3002288CF03120122B1CF03120122DACF0329
:100FB300120122F2CF0312012234D003120122962E
:100FC3009503120122D595031201225E96031201A5
:100FD30022739603120122BE9603120122F2960394
:100FE3001201223197031201228A9703120122D997
:100FF30097031201222998031201221D990312015A
:1010030022129A031201224F9A0312012216D603C7
:10101300120122CE9801120122449B01120122BC2B
:101023009C01120122AE9D01120122339E01120185
:1010330022AF9E01120122D49E011201226AA20153
:10104300120122DEA201120122CAA301120122040B
:10105300A40112012244A401120122FEA5011201DE
:10106300222FA60112012282A601120122CBA60180
:1010730012012239A7011201226BA7011201228357
:10108300A70112012298A801120122A8A8011201A6
:1010930022C7A901120122E9A9011201221FAA01F3
:1010A300120122C4AB0112012244AC0112012283BA
:1010B300AC011201229AAD0112012268D10312017F
:1010C3002279D10312012273D603120122B2D6036D
:1010D300120122E57F001201225FD3031201226F66
:1010E300D30312012284D303120122ECD30312018E
:1010F300228ACD031201220FCE0312012275CE03E1
:1011030012012237C80312012260C803120122CB45
:10111300C8031201221CC90312012275C90312015B
:101123002275A30312012282A303120122FEA30349
:10113300120122D7A40312012294A703120122B0A1
:10114300C60312012205C70312012273C70312014A
:1011530022E3C703120122BEFC01120122E8FC01B3
:10116300120122BDFD01120122B1FE01120122343E
:10117300FF0112012230E302120122EDE302120108
:101183002228E40212012250E402120122B2E402F4
:10119300120122FEE40212012257E502120122E8A3
:1011A300E502120122EAE602120122A7E802120175
:1011B3002229E9021201228EE902120122A5E90283
:1011C300120122B5EA02120122F3EA0212012245B8
:1011D300C00112012242C101120122CEC301120138
:1011E30022B1C401120122B4C401120122B1C90106
:1011F300120122B4C901120122B7C901120122D579
:10120300CA011201224FCB0112012270CB0112013C
:10121300228FCB011201220ACC0112012259CC01E7
:1012230012012278CC0112012250CF01120122B403
:10123300D503120122E9D50312012207D6031201B5
:1012430022EFD30312012292D902120122C1D90241
:101253001201220BDA0212012270DA02120122BCFD
:10126300D603120122D9A703120122C9D203120104
:1012730022F3D20312012279D403120122E8D60306
:10128300E76670100809E766700A0809E7667004E4
:101293000809E76622E066701008A3E066700A0892
:1012A300A3E066700408A3E06622C3E09608A3E007
:1012B3009608A3E09608A3E096A2D265D03322C392
:1012C300E7960809E7960809E7960809E79622C30F
:1012D300E09608A3E09608A3E09608A3E09622C050
:1012E30008C3E096F50808A3E096420808A3E09631
:1012F300420808A3E09645087001D3D008220808E5
:1013030008EAC0E0EBC0E086F0E7A4FA180986F02B
:10131300E7A42AFA180986F0E7A42AFA180986F03E
:10132300E7A42AFA1986F0E7A4FBE5F02AFA1908DC
:1013330086F0E7A42BFBE5F03AFA190886F0E7A458
:101343002BFBE5F03AFA18180986F0E7A4C5F02B51
:10135300FBE43AFA1908E7C5F0C6A426F6E5F03B24
:10136300FBE43AFA1886F0E7A4F6E5F00826F6E47B
:101373003B08F6E43A08F6D0E0FBD0E0FA22E4CFEB
:10138300C0E0E4CEC0E0E4CDC0E0E4CCC0E075F062
:1013930020E626F608E633F608E633F608E633F6E3
:1013A300181818EC33FCED33FDEE33FEEF33FFC3B7
:1013B300EC9709ED9709EE9709EF97191919400F63
:1013C300FFEC97FC09ED97FD09EE97FE191906D579
:1013D300F0BFECF709EDF709EEF709EFF719191963
:1013E300D0E0FCD0E0FDD0E0FED0E0FF22E4C396E5
:1013F300F608E496F608E496F608E496F6226016F4
:10140300080808C6C313C618C613C618C613C618D9
:10141300C613C6D5E0EA2270090808082260161828
:101423001818C6C333C608C633C608C633C608C6AB
:1014330033C6D5E0EA22E627F60809E637F60809B7
:10144300E637F60809E637F622E026F608A3E03683
:10145300F608A3E036F608A3E036F622E026F00805
:10146300A3E036F008A3E036F008A3E036F022C389
:10147300E697F60809E697F60809E697F60809E6F7
:1014830097F622C3E096F008A3E096F008A3E0964F
:10149300F008A3E096F022E657F60809E657F608A7
:1014A30009E657F60809E657F622E056F008A3E0E6
:1014B30056F008A3E056F008A3E056F022E667F6DC
:1014C3000809E667F60809E667F60809E667F622FB
:1014D300E0F608A3E0F608A3E0F608A3E0F622E6A8
:1014E300F008A3E6F008A3E6F008A3E6F022E0FA8A
:1014F300A3E0FBA3E0FCA3E0FD22EAF0A3EBF0A34F
:10150300ECF0A3EDF022E0F8A3E0F9A3E0FAA3E006
:10151300FB22E8F0A3E9F0A3EAF0A3EBF022CAC0B0
:10152300E0E6F0A308DAFAD0E0FA22CAC0E0E0A3CA
:10153300C582CCC582C583CDC583F0A3C582CCC586
:1015430082C583CDC583DAE6D0E0CA22C3E498F826
:10155300E499F91215908026C3E49AFAE49BFBE917
:1015630020E7E9121590E498F8E499F922C3E49886
:10157300F8E499F9121590E498F8E499F9C3E49A18
:10158300FAE49BFB22EB20E7CFE920E7E0B9001068
:10159300BB0008E88AF084F8AAF022E4FBC8FA2228
:1015A300EB70227B10C833C8C933C9335007C39AC1
:1015B300C3DBF280069A50012ADBEAC833F4C8C9B8
:1015C30033F4C9FA2275F008E4C833C8C933C93300
:1015D300C99AC99B5004C92AC93BD5F0ECFBC8334F
:1015E300F4C8E4C9FA22600D08C6A2E713C618C6F8
:1015F30013C6D5E0F322600C08C6C313C618C6137E
:10160300C6D5E0F422700422600D18C6C333C608A1
:10161300C633C6D5E0F41822251810AF08F51840D4
:101623000C15198008F51840021519D2AF2200C015
:10163300D0251810AF08F518500C05198008F518B7
:1016430050020519D2AFD0D0222518F58210AF0869
:10165300F518400C15198008F51840021519D2AF7A
:10166300851983222518F582E43519F58322251877
:10167300F8E43519F9222518FAE43519FB2225185F
:10168300FCE43519FD22E4732518C582C0E0E51991
:1016930034FFC583C0E0E518C3958224F810AF0872
:1016A3008583198582188008858319858218D2AFAE
:1016B300CEF0A3E520F0A37808E608F0A3DEFAEF66
:1016C300F0A3E58124FAF8E608F0A3E608F0A3E620
:1016D30008F0A30808E608F0A3E608F0A3158115AF
:1016E30081D0E0FED0E0F8158115811581E8C0E0D6
:1016F300EEC0E0222518C582C0E0E51934FFC5839A
:10170300C0E0E518C3958224F910AF0885831985D5
:1017130082188008858319858218D2AFCEF0A3E59D
:1017230020F0A37808E608F0A3DEFAEFF0A3E58142
:1017330024FBF8E608F0A3E608F0A30808E608F09F
:10174300A3E608F0A315811581D0E0FED0E0F815DB
:10175300811581E8C0E0EEC0E022851983851882F7
:10176300E0A3FEE0A3F5207808E0A3F608DFFAE0A3
:10177300A3FFE0A3C0E0E0A3C0E0E0A3C0E0E0A3D8
:10178300C0E0E0A3C0E010AF08858218858319800C
:1017930008858218858319D2AFD083D08202011FB6
:1017A300851983851882E0A3FEE0A3F5207808E07D
:1017B300A3F608DFFAE0A3FFE0A3C0E0E0A3C0E0E4
:1017C300E0A3C0E0E0A3C0E010AF088582188583E2
:1017D300198008858218858319D2AFD083D08222DD
:1017E300C0D02518C582C0E0E51934FFC583C0E029
:1017F300E518C3958224F310AF08858319858218F1
:101803008008858319858218D2AFC8F0A3E9F0A3B5
:10181300EAF0A3EBF0A37908E709F0A3D8FAECF018
:10182300A3EDF0A3EEF0A3EFF0A3D0E0F0A3D0E09C
:10183300F0A3D0E0F0A3E520F0A3E5F0F0A3228528
:101843001983851882E0C0E0A3E0F9A3E0FAA3E0DE
:10185300FBA37808E0F608A3DFFAE0FCA3E0FDA30E
:10186300E0FEA3E0FFA3E0C0E0A3E0C0E0A3E0F557
:10187300D0A3E0F520A3E0A3F5F010AF088583190A
:101883008582188008858319858218D2AFD082D0CB
:1018930083D0E0F8D0E032740480067402800274CE
:1018A30001C0E0F40412164CD0E012152122740496
:1018B300800474028000CCC0E0EDC0E0E518C39C56
:1018C300CCAD1950011D10AF068C188D1980068CF4
:1018D300188D19D2AF12152ED0E0FDD0E0FC22D026
:1018E30083D082E9C0E0E493A3C386F0C5F095F00A
:1018F300F908E493A386F0C5F095F0700BE493A385
:10190300C3994005E9048002A3E475F002A425828B
:10191300F582E5F03583F583D0E0F9E493A3C0E0E5
:10192300E493C0E022D083D082ECC0E0EDC0E0E4D9
:1019330093A3FCE493A3FDED4C600D121974EC2406
:10194300FFFCED34FFFD80EFE493A3FCE493A3FDE0
:10195300ED4C600D1219B3EC24FFFCED34FFFD8058
:10196300EFD0E0FDD0E0FCE493A3C0E0E493C0E05B
:1019730022C0E0C3E49396087401939618400FE4E1
:101983009366700808740193661870007019A3A316
:10199300C3E49396087401939618A3A3400DD0E073
:1019A300D0E0D0E0021964A3A3A3A3A3A3D0E022B1
:1019B300C0E0C0F088F0E493667008087401936691
:1019C300187000A8F0A3A3700BD0F0D0E0D0E0D043
:0B19D300E0021964A3A3D0F0D0E022D2
:1019E00074F51216F7EAFEEBFFEE2434F8EF34003C
:1019F000F988088909EE2435F582EF3400F583E093
:101A0000F8EE2437F582EF3400F583E0F50AEC8533
:101A10000AF0A4FCAAF0850AF0EDA42AFDE82CF84F
:101A2000E43DF97A257B00121590EA850882850944
:101A300083F0F8740758F97401B900028004C333C5
:101A4000D9FCFAE8131313541FF8EE28F8EF34000A
:101A5000F9E8245DF582E93400F583E05A6008EE88
:101A60002434F582EF802CEE2434F582EF3400F537
:101A700083E0C0E0EE2436F582EF3400F583E0F534
:101A8000F0D0E084A8F0EE28F8EF3400F9E824382C
:101A9000F582E93400F583E0F97F040217A374F5B9
:101AA0001216F7EAFEEBFFEE2434F582EF3400F570
:101AB00083E0C0E0EE2435F582EF3400F583D0E01A
:101AC000F08E828F83A3A3A3A3A3A3A3C082C0830A
:101AD0008E828F83A3A3A3A3A3E0F8A3E0F9D0830E
:101AE000D082E0C398F508A3E099F509EE247FF5CC
:101AF00082EF3400F583E064017069EE2480F582A2
:101B0000EF3400F583E0F8A3E0F98E828F83A3A37E
:101B1000A3A3A3A3A3E0FCA3E0FD8E828F83A3A3D2
:101B2000A3A3A3E0FAA3E0FBC3EA9CEB9D5010C380
:101B3000EC98ED99402EC3EA98EB995027800EC39C
:101B4000EA98EB994007C3EC98ED9940177CBF7D6C
:101B500007EEFAEFFB120A3DEE247FF582EF340028
:101B6000F583E4F0EE2434F8EF3400F9E8FCE9FD05
:101B7000EE2435F582EF3400F583E0F8EE2437F5F6
:101B800082EF3400F583E0F50AE508850AF0A4F554
:101B900008AAF0850AF0E509A42AF509E82508F85D
:101BA000E43509F97A257B00121590EA8C828D8341
:101BB000F0F8740758F97401B900028004C333D9EE
:101BC000FCFAE8131313541FF8EE28F8EF3400F969
:101BD000E8245DF582E93400F583E05A6008EE24DC
:101BE00034F582EF802CEE2434F582EF3400F58357
:101BF000E0C0E0EE2436F582EF3400F583E0F5F046
:101C0000D0E084A8F0EE28F8EF3400F9E82438F5A5
:101C100082E93400F583E0F91222BD021A9974EFCB
:101C20001216F7900479E064086005E06407702AF2
:101C30009061C8E060249004A7E0F4601DE0F875AE
:101C4000F005A4C8AAF02AF974A928FE740439FF83
:101C50008E828F83A3A3A3E07003021D4E90606069
:101C6000E0C0E0EE2468F582EF3400F583D0E0F0C8
:101C7000750CFB750D07750800750900E5D914F59D
:101C80000AE5D95403F50E60177403650E605CE530
:101C90000A6010EE2467F582EF3400F583E07003EC
:101CA000021D339007F6E06401602AEE2482F5827B
:101CB000EF3400F583E06004780480027800850A40
:101CC00008E508C398FA95E0FB1209238A088B09F6
:101CD000EA45097005120CA18074EE2482F582EFAA
:101CE0003400F583E070048A0C8B0DE50A601285E0
:101CF0000C82850D83F50BE5D9F0A3150BE50B7070
:101D0000F6EE2482F582EF3400F583E0604474FC43
:101D1000250AF50A780C12189EAC0AA90EEEFAEF05
:101D2000FB120AF17402121631E97026AA08AB09F7
:101D3000121145793D8E828F83A3A3A3A3E0FA7B82
:101D400000120809EEFAEFFB120A61120B5179003A
:101D500080747403650E6056850A10751100781042
:101D600012189EAC0CAD0DAA08AB09120ACD740274
:101D7000121631EE2468F582EF3400F583E06480BA
:101D80007004747F8001E0F50C780C1218A2E50E47
:101D9000F50C780C1218A2A90AAC08AD099004A79A
:101DA000E0FA7B001207C774021216318013900408
:101DB00079E06408700BAC0CAD0DEEFAEFFB120B82
:101DC00021120CAD79017F0A0217A374F51216F7E0
:101DD00074FC12161BEAFEEBFF8908A2AFE433F590
:101DE00009C2AF806AEE2463F8EF3400F97A007B11
:101DF00000A2AFE433F50AC2AF88828983E0FCA376
:101E0000E0FDEC4D603A88828983E0FAA3E0FB8A2A
:101E1000828B83E0FCA3E0FD88828983ECF0A3ED54
:101E2000F08A828B83E4F0A3F088828983E0FCA3AC
:101E3000E0FDEC4D700A88828983A3A3E4F0A3F04F
:101E4000E50AA2E092AF1211459007C6E004F0EE59
:101E50002463F582EF3400F583E0F8A3E0F9E84964
:101E6000603DEE2463F582EF3400F583E02402FA4E
:101E7000A3E03400FBEA2402F50AEB3400F50B780A
:101E80000A12189E8A828B83E0FCA3E0F9EEFAEF37
:101E9000FB120A917402121631E97003021DE590DB
:101EA00007C6E060639007C7E0F89007C6E0C398F4
:101EB000500C7402650870509007C8E0604A8E822A
:101EC0008F83A3A3A3A3E0851882851983F0A3E4DD
:101ED000F09007C6E0F87402121667E8F0A3E4F089
:101EE0009007C6E0F89007C5E028F0740212166764
:101EF000AC82AD83851882851983AA82AB83790170
:101F00001207D39007C6E4F0E509A2E092AF74048B
:101F1000121631021A990000851A87851BC622C045
:101F2000E0C0D0E8C0E0E9C0E0EAC0E0EBC0E0EC2F
:101F3000C0E0EDC0E0EEC0E0C008C009C00AC00BC0
:101F4000C082C083C0F0A2AFE433FEC2AF759B0075
:101F5000906182E0A2E05012E591A2E0500C7591F0
:101F6000FE7401651A7003121C1EE0A2E55051E5D3
:101F700091A2E5504B7591DF900479E0640760050C
:101F8000E0640870237401651A703579019004A724
:101F9000E0FA75F005A4CAA8F028FB74A92AFA741F
:101FA000043BFB121DCB8018E0640D701390049B62
:101FB000E004F064287002E4F07A00E0F9120CB357
:101FC000906182E0A2E64003022066E591A2E6402D
:101FD000030220667591BF900479E06405700812D1
:101FE0000BBD120BC98003120BC3751A00120C2310
:101FF000E990047AF07900120C051209AD7A017BA0
:1020000000900478E0F9120F05907803E0644270C4
:10201000559007FAE014F0704DC2AF12201E007800
:102020001DD0E0F618D0E0F6E59F5407700575095D
:10203000FF800375097FC4C0E0781CE6F50808E658
:102040005509F509740B78081215F9D0E02508F840
:10205000906270E0A2E740F8E8C333906272F090BB
:102060006270E0D2E0F0906181E0A2E35009E5E91E
:10207000A2E3500375E9F7A3E0A2E75009E591A2B6
:10208000E7500375917FEEA2E092AFD0F0D083D0FD
:1020900082D00BD00AD009D008D0E0FED0E0FDD02D
:1020A000E0FCD0E0FBD0E0FAD0E0F9D0E0F8D0D00E
:1020B000D0E032C0E0C0D0C082C083906183E0A293
:1020C000E05009E5BFA2E0500375BFFEE0A2E15079
:1020D00009E5BFA2E1500375BFFDE0A2E25009E5AA
:1020E000BFA2E2500375BFFBE0A2E35009E5BFA227
:1020F000E3500375BFF7E0A2E45009E5BFA2E45046
:102100000375BFEFE0A2E55009E5BFA2E5500375F6
:10211000BFDFE0A2E65009E5BFA2E6500375BFBFEE
:10212000D083D0828088C0E0C0D0E8C0E0E9C0E0C1
:10213000EAC0E0EBC0E0ECC0E0EDC0E0C0F0E5A735
:10214000A2E6500FE5A1A2E6500953A7BF75A1BFB3
:1021500012218BE5A7A2E5500CE5A1A2E55006539C
:10216000A7DF75A1DFE5A7A2E15009E5A1A2E15033
:102170000375A1FDE5A7A2E2500CE5A1A2E250067D
:1021800053A7FB75A1FBD0F002209C74F81216F740
:10219000751A01900479E064067015120B758A8235
:1021A0008B83A3A3A3A3A3A3E0FAA3E0FB120BAB2F
:1021B000A2AFE433FED2AF90047FE0640170187ADE
:1021C000207B00900478E0F9120F837A207B009046
:1021D0000478E0F9120F0B906182E0D2E6F09007EC
:1021E000F7E0602185C61B801690047EE0640170D4
:1021F00008E5C654F84405F5C653BEFC121F187412
:1022000001651A60E4EEA2E092AF7F010217A374A9
:10221000ED1216F78A088B098C0A8D0B74131216AF
:1022200067780C1214D37808790C1212C275100159
:102230007511C875120075130050127808790C12C8
:102240001472781079081212C250168010780C7926
:10225000081214727810790C1212C24004790180AD
:102260000279007F0C0217A374ED1216F78A088B0F
:10227000098C0A8D0B7413121667780C1214D3781C
:102280000C79081212C240117808790C121472AA43
:1022900008AB09AC0AAD0B802275100075110075F2
:1022A00012007513017810790C12147278107908E5
:1022B000121439AA10AB11AC12AD1380A6C082C0A3
:1022C00083E9906000F0D083D08222C2AF02000088
:1022D00022C0E074F21217E3A2AFE433FED2AFE5FE
:1022E00089A2E1500312111B758900C2C5EEA2E05C
:1022F00092AF7F01021842C0E074F21217E3A2AF5E
:10230000E433FED2AFE58BA2E0500312111B758BB4
:1023100000C2E880D8C0E0C0D0E8C0E0E9C0E0E595
:10232000A8D2AFC2C7A2E7A2E792AFD0E0F9D0E04F
:10233000F8D0D0D0E032C0E074F11217E3C2E990D7
:102340001024E024F5F8A3E0340EF988828983E0B4
:10235000F5C1901024122423901024C3E0943CA3D0
:10236000E09400402B75083C750900780812189E0F
:102370007C007D007AF57B0E12125F74021216311A
:102380009010FB7401F0901024E4F0A3F0539AFB3A
:102390007F02021842C0E074F11217E3901021E0AE
:1023A000707EC28B9010FBE4F0E5C1C0E09010227B
:1023B000E02431F8A3E0340FF988828983D0E0F07B
:1023C000901022122423900F31E064236029901092
:1023D000FB7401F0901022E4F0A3F0750828F509D1
:1023E000780812189E7C007D007A317B0F12125FF4
:1023F00074021216318029901022E02430F8A3E0F4
:10240000340FF988828983E0642470149010FB747F
:1024100001F0901021F0121235901022E4F0A3F098
:10242000022390E02401F0A3E03400F022002020F9
:102430002020202020202028282828282020202074
:102440002020202020202020202020202020881034
:102450001010101010101010101010101010040494
:10246000040404040404040410101010101010419B
:10247000414141414101010101010101010101010C
:1024800001010101010101010110101010101042A1
:1024900042424242420202020202020202020202DC
:0E24A0000202020202020202021010101020BC
:1024B000FFFFFFFFFFFFFFFFC082C083784C79085A
:1024C00088828983A3A3A3A3A3A3E4F0888289833A
:1024D000A3A3A3A3A374FFF0E82418F8E93400F938
:1024E000E864AC7003E9640870D690084E74FFF09D
:1024F00090084DE4F090084CF090084FF0A3F002E3
:102500003DB074EC12168B90084FE0F508A3E0F58F
:1025100009E508450970061209AD02333E850882B7
:10252000850983E014601814601524FE601124C42A
:102530007003022D4424C07003022D4402333EE098
:10254000F9120B638A0A8B0BAE0AAF0B9004A6E05C
:102550007003022942120A55E9F875F005A4C8AAC9
:10256000F02AF974A928F50C740439F50D850C824C
:10257000F583E0F50AA3E0F50BAC0AFDEEFAEFFBFC
:10258000120B5DE9F50E7402650E70030228EA8EE7
:10259000828F83E024FE600A24FE70030227D402A7
:1025A000333EEE65087003EF650960211209CB9098
:1025B00007DAE0640170169007D9E0701079011213
:1025C0000C71120C41120C6B7900120C77E50E6045
:1025D00021E5082415F582E5093400F583E0601251
:1025E0009007D5E0F8A3E0F9A3E0687003A3E069E1
:1025F0007042120BD58A0C8B0D8C0E8D0F7510034B
:10260000751100751200751300780C7910121439C9
:102610007510FF7511FF7512FF780C791012149A5E
:102620008E828F83A3A3E50CF0A3E50DF0A3E50E46
:10263000F0A3E4F0E5082415F582E5093400F583FC
:10264000E0640160030226EC850A82850B83A3A364
:10265000750CF1750DFF750EFF750FFF780C1214D8
:102660004C780C12189A8E828F83A3A3C082C083E9
:102670009007D7E0F508A3E085080CF50DE4F50E0A
:10268000F50FD083D082780C12144CAA0CAB0DAC91
:102690000EAD0F12220F7404121631E9701F8E82D4
:1026A0008F83A3A3C082C0839007D7E0F508A3E07F
:1026B000F509E4F50AF50BD083D0828014850A82EF
:1026C000850B83A3A37508F17509FF750AFF750BC8
:1026D000FF780812144C750CFF750DFF750EFF7511
:1026E0000F007808790C12149A022C3CEE240EF597
:1026F00082EF3400F5831218B18E828F83A3A31268
:1027000014F112220F7404121631E96401600302FD
:10271000325F850A82850B83A3A3750CF1750DFFCB
:10272000750EFF750FFF780C12144C780C12189A66
:102730008E828F83A3A3C082C0839007D7E0F50861
:10274000A3E085080CF50DE4F50EF50FD083D082DB
:10275000780C12144CAA0CAB0DAC0EAD0F12220F5C
:102760007404121631E9701F8E828F83A3A3C08276
:10277000C0839007D7E0F508A3E0F509E4F50AF572
:102780000BD083D0828014850A82850B83A3A37526
:1027900008F17509FF750AFF750BFF780812144CD4
:1027A000750CFF750DFF750EFF750F007808790C1D
:1027B00012149AEE240EF582EF3400F58378081295
:1027C00014E29007DDE06427700474258002E004C1
:1027D000F002325FEE65087003EF65096031900723
:1027E000F1E0F91209D1850882850983E06402705D
:1027F0001E9007DAE0640170169007D9E070107936
:1028000000120C71120C41120C6B7901120C77E55D
:102810000E60129007EBE0F8A3E0F9A3E068700304
:10282000A3E0697039120BD58A0C8B0D8C0E8D0FBD
:10283000751003751100751200751300780C79106E
:102840001214397510FF7511FF7512FF780C79108D
:1028500012149A8E828F83A3A3780C1214E2850A35
:1028600082850B83A3A3750CF1750DFF750EFF75A3
:102870000FFF780C12144C780C12189A8E828F83EA
:10288000A3A3C082C0839007EDE0F508A3E085080C
:102890000CF50DE4F50EF50FD083D082780C1214F0
:1028A0004CAA0CAB0DAC0EAD0F12220F7404121615
:1028B00031E9701F8E828F83A3A3C082C0839007EB
:1028C000EDE0F508A3E0F509E4F50AF50BD083D0B7
:1028D000828014850A82850B83A3A37508F175098C
:1028E000FF750AFF750BFF02304885088285098352
:1028F000E0640270139007DAE06401700B9007D96E
:10290000E070057900120C71E50C2404FEE50D342D
:1029100000FF8E828F83E0F9120B998E828F83E005
:102920009004A7F07902FA75F005A4CAA8F028FB74
:1029300074A92AFA74043BFB121DCBAA0AAB0B0242
:10294000333BEE65087003EF65098E828F83600369
:10295000022B5EE024FE600A24FE7003022A9B0222
:102960003337EE2415F582EF3400F583E0604C90A8
:1029700007D5E0F8A3E0F9A3E0687003A3E069607D
:102980003A120BD58A088B098C0A8D0B750C0A75C7
:102990000D00750E00750F007808790C1214397847
:1029A0000812189A8E828F83A3A31214F112220F99
:1029B0007404121631E96003023337120BD58A080A
:1029C0008B098C0A8D0B750C03750D00750E007547
:1029D0000F007808790C121439750CFF750DFF750E
:1029E0000EFF7808790C12149A8E828F83A3A37835
:1029F000081214E2EE2415F582EF3400F583E0644A
:102A00000170328E828F83A3A3C082C0839007D7C8
:102A1000E0F508A3E0F509E4F50AD083D082780850
:102A200012144CEE240EF582EF3400F58378081270
:102A300014E2023337EE240EF582EF3400F58312F0
:102A400018B18E828F83A3A31214F112220F740483
:102A5000121631E9640160030233378E828F83A33B
:102A6000A3C082C0839007D7E0F508A3E0F509E48E
:102A7000F50AD083D082780812144CEE240EF58229
:102A8000EF3400F58378081214E29007DDE0642744
:102A9000700474258002E0040233369007EBE0F8FE
:102AA000A3E0F9A3E0687003A3E0696037120BD5D7
:102AB0008A088B098C0A8D0B750C0A750D00750E32
:102AC00000750F007808790C121439780812189ADA
:102AD0008E828F83A3A31214F112220F7404121694
:102AE00031E97077EE2402F508EF3400F509120B96
:102AF000D58A0C8B0D8C0E8D0F751003751100751A
:102B00001200751300780C79101214397510FF75C6
:102B100011FF7512FF780C791012149A85088285BE
:102B20000983780C1214E2850882850983C082C06B
:102B3000839007EDE0F508A3E0F509E4F50AF50B4D
:102B4000D083D082780812144CEE240EF582EF3434
:102B500000F58378081214E21209D7023337E02413
:102B6000FE600A24FE7003022C4E02333E1209CB93
:102B70009007DAE0640170169007D9E070107901CF
:102B8000120C71120C41120C6B7900120C77900729
:102B9000D5E0F8A3E0F9A3E0687003A3E06960372B
:102BA000120BD58A088B098C0A8D0B750C0A750DD2
:102BB00000750E00750F007808790C12143978082A
:102BC00012189A8E828F83A3A31214F112220F740B
:102BD00004121631E97074EE2402F508EF3400F5A2
:102BE00009120BD58A0C8B0D8C0E8D0F7510037589
:102BF0001100751200751300780C791012143975D4
:102C000010FF7511FF7512FF780C791012149A8558
:102C10000882850983780C1214E28508828509836D
:102C2000C082C0839007D7E0F508A3E0F509E4F57A
:102C30000AF50BD083D082780812144CEE240EF5DE
:102C400082EF3400F58378081214E202325F9007B5
:102C5000F1E0F91209D1850882850983E0640270E8
:102C60001E9007DAE0640170169007D9E0701079C1
:102C700000120C71120C41120C6B7901120C77903E
:102C800007EBE0F8A3E0F9A3E0687003A3E0696054
:102C900037120BD58A088B098C0A8D0B750C0A75B7
:102CA0000D00750E00750F007808790C1214397834
:102CB0000812189A8E828F83A3A31214F112220F86
:102CC0007404121631E97079EE2402F8EF3400F939
:102CD00088088909120BD58A0C8B0D8C0E8D0F7507
:102CE0001003751100751200751300780C7910121D
:102CF00014397510FF7511FF7512FF780C791012D9
:102D0000149A850882850983780C1214E28508825A
:102D1000850983C082C0839007EDE0F508A3E0F544
:102D200009E4F50AF50BD083D082780812144CEE32
:102D3000240EF582EF3400F58378081214E21209AC
:102D4000D70233319004A6E07003023155120A55C0
:102D5000E9F875F005A4C8AAF02AF974A928F510B5
:102D6000740439F511851082F583E0F508A3E0F5C8
:102D7000099004A7E0F875F005A4C8AAF02AF97430
:102D8000A928F50C740439F50D90084DE05407702E
:102D900003023063A3E0F9120B638A0A8B0BAE0ABD
:102DA000AF0BAC08AD09120B5DE9F50E7402650EB0
:102DB0007003023063850C82850D83A3A3A3A3E077
:102DC000F875F08AA4C8AAF02AF974B128F50A7433
:102DD0000839F50BAA0AFB120B8DAA0AAB0B120BD2
:102DE00087751280751300781212189E7C007D6022
:102DF000E50A2406FAE50B3401FB120ACD7402122F
:102E00001631A80AA90B906195E0C0E0E82486F588
:102E100082E93401F583D0E0F0906196E0C0E0E80B
:102E20002487F582E93401F583D0E0F0906197E0E2
:102E3000C0E0E82488F582E93401F583D0E0F09021
:102E40006198E0C0E0E82489F582E93401F583D097
:102E5000E0F08E828F83E024FE600A24FE7003027D
:102E60002F6E0230631209CB9007DAE06401701113
:102E70009007D9E0700B120C41120C6B7900120C08
:102E800077E50E60129007D5E0F8A3E0F9A3E068BB
:102E90007003A3E0697036120BD58A0C8B0D8C0E73
:102EA0008D0F751003751100751200780C791012D2
:102EB00014397510FF7511FF7512FF780C79101217
:102EC000149A8E828F83A3A3780C1214E285088251
:102ED000850983A3A3750CF1750DFF750EFF750FA2
:102EE000FF780C12144C780C12189A8E828F83A3E0
:102EF000A3C082C0839007D7E0F50CA3E0F50DE4F2
:102F0000F50EF50FD083D082780C12144CAA0CABBE
:102F10000DAC0EAD0F12220F7404121631E9701FA2
:102F20008E828F83A3A3C082C0839007D7E0F50869
:102F3000A3E0F509E4F50AF50BD083D0828014856F
:102F40000882850983A3A37508F17509FF750AFF37
:102F5000750BFF780812144C750CFF750DFF750E7C
:102F6000FF750F007808790C12149A0232509007FE
:102F7000F1E0F91209D1E50E60129007EBE0F8A339
:102F8000E0F9A3E0687003A3E0697036120BD58AFC
:102F90000C8B0D8C0E8D0F751003751100751200C2
:102FA000780C79101214397510FF7511FF7512FF26
:102FB000780C791012149A8E828F83A3A3780C1246
:102FC00014E2850882850983A3A3750CF1750DFFB2
:102FD000750EFF750FFF780C12144C780C12189AAE
:102FE0008E828F83A3A3C082C0839007EDE0F50C8F
:102FF000A3E0F50DE4F50EF50FD083D082780C1226
:10300000144CAA0CAB0DAC0EAD0F12220F740412AF
:103010001631E9701F8E828F83A3A3C082C0839074
:1030200007EDE0F508A3E0F509E4F50AF50BD08318
:10303000D0828014850882850983A3A37508F17561
:1030400009FF750AFF750BFF780812144C750CFF09
:10305000750DFF750EFF750F007808790C12149A24
:1030600002331FE510650C7004E511650D70030255
:103070003133850C82850D83A3A3A3E07003023155
:1030800017850C82850D83A3A3A3A3E0F875F08AAE
:10309000A4C8AAF02AF974B128FE740839FFEEFA20
:1030A000EFFB120B8DEEFAEFFB120B87750A8075A2
:1030B0000B00780A12189E7C007D60EE2406FAEF61
:1030C0003401FB120ACD7402121631906195E0C0F2
:1030D000E0EE2486F582EF3401F583D0E0F09061D4
:1030E00096E0C0E0EE2487F582EF3401F583D0E06E
:1030F000F0906197E0C0E0EE2488F582EF3401F5AE
:1031000083D0E0F0906198E0C0E0EE2489F582EF92
:103110003401F583D0E0F0E5102404FEE51134001D
:10312000FF8E828F83E0F9120B998E828F83E0905D
:1031300004A7F079029004A7E0FA75F005A4CAA8E4
:10314000F028FB74A92AFA74043BFB121DCBAA08D1
:10315000AB0902333B90084DE05407700302333E45
:10316000A3E0F9120B638A088B09AE08AF098E82BF
:103170008F83E024FE600A24FE700302326702336C
:103180003E1209CB9007DAE0640170169007D9E08F
:1031900070107901120C71120C41120C6B79001233
:1031A0000C779007D5E0F8A3E0F9A3E0687003A3DB
:1031B000E0696037120BD58A088B098C0A8D0B7574
:1031C0000C0A750D00750E00750F007808790C1249
:1031D0001439780812189A8E828F83A3A31214F1DF
:1031E00012220F7404121631E97074EE2402F508ED
:1031F000EF3400F509120BD58A0C8B0D8C0E8D0F58
:10320000751003751100751200751300780C791094
:103210001214397510FF7511FF7512FF780C7910B3
:1032200012149A850882850983780C1214E28508A5
:1032300082850983C082C0839007D7E0F508A3E0A8
:10324000F509E4F50AF50BD083D082780812144C06
:10325000EE240EF582EF3400F58378081214E29024
:10326000084E74020233369007F1E0F91209D1904A
:1032700007EBE0F8A3E0F9A3E0687003A3E069605E
:1032800037120BD58A088B098C0A8D0B750C0A75C1
:103290000D00750E00750F007808790C121439783E
:1032A0000812189A8E828F83A3A31214F112220F90
:1032B0007404121631E97076EE2402F8EF3400F946
:1032C00088088909120BD58A0C8B0D8C0E8D0F7511
:1032D0001003751100751200751300780C79101227
:1032E00014397510FF7511FF7512FF780C791012E3
:1032F000149A850882850983780C1214E285088265
:10330000850983C082C0839007EDE0F508A3E0F54E
:1033100009E4F50AF50BD083D082780812144CEE3C
:10332000240EF582EF3400F58378081214E21209B6
:10333000D790084E7404F0EEFAEFFB120B577F0C97
:1033400002175D74F012168BEAFEEBFFEE2402F812
:10335000EF3400F988088909EE2406F8EF3400F903
:10336000880A890B8882F5831218B5850882850939
:10337000831214F1120BB17402121631850A828580
:103380000B831218B58508828509831214F1120B7C
:10339000A57402121631EE240EF582EF3400F58387
:1033A0001214F1120BB78E828F83E06440701CEE12
:1033B0002412F8EF3400F988828983E0906064F089
:1033C00088828983A3E09060658006906064E4F061
:1033D000A3F090084FEEF0A3EFF0EE2416F582EF85
:1033E0003400F583E0F8A3E0F58388821216899013
:1033F0006054E4F0A3F0A3F0A3F0A3F0A3F0A3F0D3
:10340000A3F0A3F0A3F0A3F0A3F0906182E0C2E6E2
:10341000F07591BFEE2415F582EF3400F583E0647A
:10342000017003120BE7E5E170FCEE2414F582EF66
:103430003400F583E0F46003E0F5E1EE2415F58255
:10344000EF3400F5837401F090047FE06401707341
:10345000120BD58A088B098C0A8D0B780812189AE2
:103460008E828F83A3A31214F112226874041216A1
:10347000318A088B098C0A8D0B750C05750D00754A
:103480000E00750F007808790C1213017403780888
:10349000121401E50824F4F508E5093401F5099052
:1034A00007F7E06003120F2FE4F50AF50B78081216
:1034B000189A7A207B00900478E0F9120F77740450
:1034C0001216317F0802175D74EA12168BEAFEEBC2
:1034D000FF8C148D15EE4F70030235E4120BD58A64
:1034E000088B098C0A8D0B750C01750D00750E008B
:1034F000750F007808790C121439750CFF750DFFE3
:10350000750EFF7808790C12149A8E828F83E0640E
:103510000270149007D5E0F8A3E0F9A3E068700307
:10352000A3E06970248017E06404701D9007EBE04D
:10353000F8A3E0F9A3E0687003A3E069700B8E8242
:103540008F83A3A378081214E275101A7511007501
:103550001200751300780812189A85148285158355
:10356000A3A31214F112226874041216318A0C8B70
:103570000D8C0E8D0F7810790C1212C240668514D6
:1035800082851583A3A3750CE7750DFF750EFF7576
:103590000FFF780C12144C780C12189A8E828F83BD
:1035A000A3A31214F112220F7404121631E970341D
:1035B000750C07750D00750E00750F007808790CF5
:1035C000121439780812189A8E828F83A3A31214CA
:1035D000F112220F7404121631E97004790080068A
:1035E0007901800279027F0E02175D74F012168B4A
:1035F000890874FF6508600302377990084DE0542C
:10360000077003023C557A00784C790888828983D8
:10361000A3A3A3A3A3E06404703FEA75F018A4F881
:10362000A9F0745228F582740839F583E0640170BA
:10363000377A00784C790888828983A3A3A3A3A34F
:10364000E0640460030236CE88828983A3A3A3A327
:10365000A3A3E06401707780630AE82418F8E934D2
:1036600000F9EAC3940440A47A00784C790888826F
:103670008983A3A3A3A3A3E064017067EA75F0188C
:10368000A4F8A9F0745228F582740839F583E0642F
:103690000170627A00784C790888828983A3A3A399
:1036A000A3A3E06401600302375588828983A3A342
:1036B000A3A3A3A3E064016003023755EA75F018E1
:1036C000A4F8A9F0745128FA740839023C520AE8A7
:1036D0002418F8E93400F9EAC39404500302363799
:1036E000023C550AE82418F8E93400F9EAC39404C6
:1036F000500302366E7A00784C790888828983A359
:10370000A3A3A3A3E064027061EA75F018A4F8A96A
:10371000F0745228F582740839F583E06401705919
:103720007A00784C790888828983A3A3A3A3A3E0B5
:103730006402707A88828983A3A3A3A3A3A3E0640D
:1037400001706BEA75F018A4F8A9F0745128FA74A6
:103750000839FB806F0AE82418F8E93400F9EAC355
:1037600094045003023699023C550AE82418F8E9FB
:103770003400F9EAC3940440827A00784C790888CE
:10378000828983A3A3A3A3A3E06508703A888289F2
:1037900083A3A3A3A3A3A3E06401702BEA75F0188D
:1037A000A4F8A9F0745128FE740839FF802C0AE8A7
:1037B0002418F8E93400F9EAC394045003023726C8
:1037C0007A007B00023C590AE82418F8E93400F931
:1037D000EAC3940440A97E007F007A00784C7908FF
:1037E00088828983A3A3A3A3A3E06508701BEA755D
:1037F000F018A4F8A9F0745228F582740839F583FA
:10380000E0640170137A0180110AE82418F8E934A1
:1038100000F9EAC3940440C87A00E5081460101463
:10382000700302399024FE7003023AA3023C557BD8
:1038300000784C790888828983A3A3A3A3A3E064BA
:10384000027052EB75F018A4F8A9F0745228F582B2
:10385000740839F583E06401704A7B00784C79087C
:1038600088828983A3A3A3A3A3E064026003023830
:10387000FE88828983A3A3A3A3A3A3E06401707E2F
:10388000EB75F018A4F8A9F0745128F50A740839FA
:10389000F50B0239160BE82418F8E93400F9EBC3EC
:1038A000940440917B00784C790888828983A3A393
:1038B000A3A3A3E064046003023957EB75F018A4D6
:1038C000F8A9F0745228F582740839F583E0640190
:1038D00060030239697B00784C790888828983A368
:1038E000A3A3A3A3E06404600302397488828983DC
:1038F000A3A3A3A3A3A3E064017079023AF70BE8A2
:103900002418F8E93400F9EBC3940450030238603A
:10391000750A00750B00EAA2E05035850A82850B16
:1039200083A3A3750CF6750DFF750EFF750FFF7859
:103930000C12144C780C12189A8E828F83A3A31247
:1039400014F112220F7404121631E97003023C4F75
:10395000AA0AAB0B023C590BE82418F8E93400F929
:10396000EBC3940450030238AAEAA2E0501BEEFA1B
:10397000EFFB80190BE82418F8E93400F9EBC39445
:103980000450030238DB023B9C7A007B00023C5966
:103990007B00784C790888828983A3A3A3A3A3E042
:1039A00064047040EB75F018A4F8A9F0745228F57F
:1039B00082740839F583E0640170387B00784C79B3
:1039C0000888828983A3A3A3A3A3E06404600302FD
:1039D0003A5588828983A3A3A3A3A3A3E0640170BB
:1039E00074023AF70BE82418F8E93400F9EBC394B1
:1039F0000440A37B00784C790888828983A3A3A321
:103A0000A3A3E064017063EB75F018A4F8A9F07447
:103A10005228F582740839F583E06401705B7B00FD
:103A2000784C790888828983A3A3A3A3A3E06401C7
:103A3000705288828983A3A3A3A3A3A3E064017027
:103A400043EB75F018A4F8A9F0745128F50A74082E
:103A500039F50B80440BE82418F8E93400F9EBC37E
:103A6000940450030239C1023B9C0BE82418F8E986
:103A70003400F9EBC394044080EAA2E0501EEEFA51
:103A8000EFFB801C0BE82418F8E93400F9EBC39431
:103A9000044091750A00750B00023BA27A007B007E
:103AA000023C597B00784C790888828983A3A3A3C0
:103AB000A3A3E064017055EB75F018A4F8A9F074A5
:103AC0005228F582740839F583E06401704D7B005B
:103AD000784C790888828983A3A3A3A3A3E0640117
:103AE0006003023B8A88828983A3A3A3A3A3A3E0E4
:103AF00064016003023B8AEB75F018A4F8A9F07426
:103B00005128F50A740839F50B023BA20BE824187A
:103B1000F8E93400F9EBC39404408E7B00784C79CB
:103B20000888828983A3A3A3A3A3E064026003029D
:103B30003BE1EB75F018A4F8A9F0745228F58274F3
:103B40000839F583E064016003023BF37B00784CA5
:103B5000790888828983A3A3A3A3A3E064026003F6
:103B6000023BFA88828983A3A3A3A3A3A3E06401F1
:103B70006003023BFAEB75F018A4F8A9F074512821
:103B8000F50A740839F50B023C120BE82418F8E921
:103B90003400F9EBC394045003023AD4750A00755B
:103BA0000B00EAA2E04003023950850A82850B83AC
:103BB000A3A3750CF6750DFF750EFF750FFF780C3E
:103BC00012144C780C12189A8E828F83A3A31214AD
:103BD000F112220F7404121631E960030239508089
:103BE0006E0BE82418F8E93400F9EBC39404500391
:103BF000023B21EAA2E0505D80550BE82418F8E969
:103C00003400F9EBC394045003023B52750A00756B
:103C10000B00EAA2E04003023950850A82850B833B
:103C2000A3A3750CF6750DFF750EFF750FFF780CCD
:103C300012144C780C12189A8E828F83A3A312143C
:103C4000F112220F7404121631E96003023950EEAA
:103C5000FAEFFB80047A007B000234C374F612167C
:103C60008B8909750800784C790888828983A3A319
:103C7000A3A3A3A3E06003023D38E50875F018A4F0
:103C8000F8A9F0745128FE740839FF8E828F83A33F
:103C90007401F08E828F83E509F0120BD58E828F2E
:103CA00083A3A31214FD8E828F83A3A3A3A3A3A334
:103CB000E4F0A3F0EE240EF582EF3400F58374FFF8
:103CC000F0A3F0A3F0A3F0EE2414F582EF3400F596
:103CD000837401F0EE2415F582EF3400F58374014E
:103CE000F0EE2416F582EF3400F583E4F0A3F090B3
:103CF000084DE04509F090084CE004F06401600CC8
:103D0000748065096006744065097019E50875F0EE
:103D100018A4F8A9F0745128F8740839F990084FDC
:103D2000E8F0A3E9F0E50875F018A4F8A9F07451DB
:103D300028FA740839FB80180508E82418F8E934D3
:103D400000F9E508C394045003023C6A7A007B0042
:103D500080007F0202175DC082C0838A828B83E06D
:103D6000F8A3E0F98A828B83E4F0A3F08882898348
:103D7000A3F088828983E0F4F890084DE058F09031
:103D8000084CE014F0700B90084FE4F0A3F090049E
:103D900079F0801CC082C08390084CE0600A9008D3
:103DA0004FE0FAA3E0FB80047A007B008002E0F998
:103DB000D083D08202011FC082C083E9FB7A0078E1
:103DC0004C790888828983A3A3A3A3A3E06B701610
:103DD000EA75F018A4F8A9F0745228F5827408392D
:103DE000F583E0F980110AE82418F8E93400F9EACB
:103DF000C3940440CE790080B7C082C08390084C41
:103E0000023DAE74F612168BEAFEEBFF9061D0E035
:103E1000C0E0EE2400F582EF3401F583D0E0F090AD
:103E200061D7E0F89061D5E0C398547FC0E0EE24FC
:103E300001F582EF3401F583D0E0F09061D6E0C364
:103E400098547FC0E0EE2402F582EF3401F583D070
:103E5000E0F0701A9061C5E0A2E45012E0A2E750D1
:103E60000DEE2402F582EF3401F5837480F0120C1C
:103E70009BEE2401F582EF3401F583E07034EE24EB
:103E800002F582EF3401F583E070279061C5E0A26E
:103E9000E4501FE0A2E7501AEE2402F582EF34014D
:103EA000F5837480F0EE2401F582EF3401F583741C
:103EB00080F075E1957800EE2400F582EF3401F58D
:103EC00083E060279061D3E0C0E08808EE2508F524
:103ED00082EF3400F583D0E0F008EE2400F582EFA5
:103EE0003401F583E0F9E8C39940D975E191023DC9
:103EF0005274F612168BEAFEEBFF9061C8E0C0E048
:103F0000EE2403F582EF3401F583D0E0F09061CF29
:103F1000E0F89061CDE0C398547FC0E0EE2404F552
:103F200082EF3401F583D0E0F09061CEE0C3985485
:103F30007FC0E0EE2405F582EF3401F583D0E0F098
:103F4000701A9061C5E0A2E05012E0A2E3500DEEBD
:103F50002405F582EF3401F5837480F0120CA1EE94
:103F60002404F582EF3401F583E07034EE2405F586
:103F700082EF3401F583E070279061C5E0A2E05044
:103F80001FE0A2E3501AEE2405F582EF3401F58319
:103F90007480F0EE2404F582EF3401F5837480F030
:103FA000120CA77A00EE2403F582EF3401F583E0CA
:103FB000602F9061CBE0C0E08A08EE2508F8EF346E
:103FC00000F9E82480F582E93400F583D0E0F00AB6
:103FD000EE2403F582EF3401F583E0F8EAC398405C
:103FE000D175E181023D5274F412168B8908A8083C
:103FF000E875F08AA4C8AAF02AF974B128FE7408FA
:1040000039FFEEFAEFFB120B8DEEFAEFFB120B8786
:10401000750A80750B00780A12189E7C007D60EE90
:104020002406FAEF3401FB120ACD74021216319005
:104030006195E0C0E0EE2486F582EF3401F583D08F
:10404000E0F0906196E0C0E0EE2487F582EF340165
:10405000F583D0E0F0906197E0C0E0EE2488F5822F
:10406000EF3401F583D0E0F0906198E0C0E0EE24F9
:1040700089F582EF3401F583D0E0F07F0402175D0B
:1040800074F212168B8908A808E875F08AA4C8AAE9
:10409000F02AF974B128F8740839F99061C6E0FD86
:1040A000E054F0F075E1817C00E82403F582E93406
:1040B00001F583E0602B8C0AE8250AFAE93400FB5D
:1040C000EA2480F582EB3400F583E09061CAF00CBD
:1040D000E82403F582E93401F583E0FAECC39A4061
:1040E000D5E82405F582E93401F583E060049061A8
:1040F000CEF0E82404F582E93401F583E060049011
:1041000061CDF0ED9061C6F0A808E875F08AA4C80A
:10411000AAF02AF974B128F8740839F9E0FCE054DF
:104120000FF075E1917A00E82400F582E93401F599
:1041300083E060238A0AE8250AF582E93400F583E2
:10414000E09061D2F00AE82400F582E93401F583B9
:10415000E0FBEAC39B40DDE82402F582E93401F587
:1041600083E060049061D6F0E82401F582E934012F
:10417000F583E060049061D5F0EC9061C6F08508AD
:1041800082AE82EEF875F08AA4C8AAF02AF974B15A
:1041900028F50A740839F50B750C80750D00780C3C
:1041A00012189EE50A2406FCE50B3401FD7A007B1B
:1041B00060120ACD7402121631A80AA90BE82486EF
:1041C000F582E93401F583E0906195F0E82487F504
:1041D00082E93401F583E0906196F0E82488F58265
:1041E000E93401F583E0906197F0E82489F582E9EC
:1041F0003401F583E0906198F0EE75F005A4CEA847
:10420000F028FF74A92EF58274043FF583E0F8A32B
:10421000E0F5838882E0648070419010CE740FF0E6
:10422000A3740BF0A374F7F0A3740AF0A3740FF057
:10423000A3740BF0A3740FF0A3740BF0A374F7F046
:10424000A3740AF0A3740FF0A3740BF0A37415F019
:10425000A3740BF0900479740880059004797407B6
:10426000F09010DC74F7F0A3740AF0A374F7F0A3D5
:10427000740AF0A374F7F0A3740AF0A374F7F0A320
:10428000740AF0A374F7F0A3740AF0A374F7F0A310
:10429000740AF07F0602175DC082C083906190743B
:1042A00004F0A37448F0A37402F09061807440F0AD
:1042B0009061BC7403F09061877419F0906265742A
:1042C0001BF0906249E0C3941390619C400A74090A
:1042D000F090606674018007740DF0906066E4F001
:1042E00090619A7433F0A37455F09061A0743AF021
:1042F0009007F5E064017009C29190047D746780B5
:104300000590047D7461F09024B6E493906186F08A
:104310009024B0E493F46027E493540FF8906185FF
:10432000E0686012E5C654804449F5C6E59E547FB6
:10433000644970F8E8F053C680E59E547F70FA79BE
:1043400005120C9502470CC082C083E5A8F853A85B
:104350007E906181E4F0A3F0A3F0C2BA539AFEC24A
:1043600089759B00C2C275E90075910075BF007523
:10437000A91175B905906181F0A374C0F0A3E4F0B0
:10438000D2BA439A0174805842A802470CF00247FF
:104390000CC082C08374F812161B90047BE0F8A353
:1043A000E0F9E84970030244BF90047BE0544060A8
:1043B000237908851882851983AA82AB83120AAFF4
:1043C000851882851983AA82AB831207AF90047B7C
:1043D000E054BFF0E054806010790C7A1B7B081227
:1043E0000AAF90047BE0547FF0E0A2E0503190618E
:1043F0009A7433F0A37455F09061A0743AF090076A
:10440000F5E064017009C29190047D7467800590A5
:10441000047D7461F01207B590047BE054FEF0E077
:104420005402603190619A743FF0A3745AF0906125
:10443000A0747FF09007F5E064017009D2919004B8
:104440007D7471800590047D746AF01207B5900444
:104450007BE054FDF0E0540460139024B4E49390A6
:104460006186F01207BB90047BE054FBF0E0540837
:1044700060139024B5E493906186F01207BB90041A
:104480007BE054F7F0E0541060139024B6E493906E
:104490006186F01207BB90047BE054EFF0E05420FB
:1044A000600A1207BB90047BE054DFF0A3E05401E4
:1044B000600D1209B91207C190047CE054FEF0743B
:1044C0000812163102470C74EC12168B74F4121693
:1044D0001B851882851983AC82AD837583817582B3
:1044E000D1740412152E9024B493F4600302465341
:1044F000907808E0C3940250030246337404121605
:1045000067AC82AD8375838175825B740812152E4A
:104510008518828519838582128583137404121687
:1045200067AC82AD83750EFF750FFF7FFF7E007550
:104530000C48750D78801574086E70030245C774B9
:10454000096E70030245C7740A6E607B850C828514
:104550000D8378081214D38C828D83A909E50AC9CA
:10456000F8881074187808121401E5104508F8C38B
:10457000E098A3E099850C82850D8378081214D306
:1045800040188C828D8374187808121401E5104548
:1045900008F8E0C398F8A3E0801C74187808121497
:1045A00001E5104508FAE9FB8C828D83E0F8A3E071
:1045B000F9EAC398F8EB99F9C3E8950EE9950F501D
:1045C00006880E890FEEFF0EE50C2404F50CE50DB0
:1045D0003400F50DEEC39413500302453774FF65A4
:1045E0000E700474FF650F60238F08740278081240
:1045F000160874482508F58274783509F58378081B
:104600001214D3851282851383E508F0EC2402FC92
:10461000ED3400FD851282851383A3858212858384
:1046200013740C121667E5826C7003E5836D6003EA
:10463000024525750801750900780812189E740254
:10464000121667AC82AD837A2D7B091210F77402C3
:10465000121631740C1216317F0C02175DC082C025
:10466000839061AE7468F0A3746AF090624574FB45
:10467000F0A304F053F4FD43FE029007F57401F03B
:104680009061A0E0643A90619A70237433F0A3744F
:1046900055F09061A0743AF0740164017009C29100
:1046A00090047D7467802890047D74618021743F3C
:1046B000F0A3745AF09061A0747FF07401640170EB
:1046C00009D29190047D7471800590047D746A0212
:1046D000438DC082C0839007D3E0640170119007BE
:1046E000D9E064016019E07006A3E06401601090F5
:1046F00007EAE06401700C9007F0E064017004794F
:104700000C800279008005E0F91222BDD083D082AE
:1047100002011FC082C0839007DD7425F09007DB83
:104720007401F0A3E4F07A01FB120C119007C9E0C8
:10473000F8A3E0C82416F582E83400F58374DDF0B0
:10474000A37409F09007DAE0640170169007D9E0CD
:1047500070107901120C71120C41120C6B7900125D
:104760000C7D02470CC082C08374FA12161B90079E
:10477000D2E0640170081209C59007D2E4F075E137
:10478000F19007C9E0F8A3E0C82415F582E83400E9
:10479000F5837401F09007D4E06401707690819500
:1047A000C082851882851983AC82AD83758381D0E0
:1047B00082740612152E75D90D9007CBE0C43333E1
:1047C00054C04403F5D978C9790788828983A3A3A3
:1047D000A3E0F5D988828983A3A882A983E864CF5E
:1047E0007003E9640770E3851882851983A882A99C
:1047F0008388828983E0F5D9A3A882A983740612ED
:104800001667E582687003E5836970E575E195795F
:104810000180027900120C179010CE742DF0A37451
:104820000BF0A37433F0A3740BF0A3742DF0A374F6
:104830000BF0A3742DF0A3740BF0A374F7F0A37422
:104840000AF0A374F7F0A3740AF0A37439F0A37408
:104850000BF09010DC74F7F0A3740AF0A374F7F077
:10486000A3740AF0A374F7F0A3740AF0A374F7F02A
:10487000A3740AF0A374F7F0A3740AF0A374F7F01A
:10488000A3740AF09007CBE0F97ACC7B07120BF304
:104890009007DDE0F91222BD7901120C1D7AD67B5A
:1048A000BE7C897D8E120C357A557B557C557D00FA
:1048B000120BFF7900120C899007C9E0F8A3E0C839
:1048C0002414F582E83400F5837416F090047974AA
:1048D00005F0040244C174F712168B8908A808E891
:1048E00075F005A4C8AAF02AF974A928FE74043941
:1048F000FF9007E2E0F97AE37B07120BF39007F0F1
:10490000E0701A7900120C539007B8E07004790037
:10491000800279017AB97B07120BF98005790112BF
:104920000C5375E1F175D9239007E2E0C433335499
:10493000C04405F5D978E0790788828983A3A3A3C9
:10494000E0F5D988828983A3A882A983E864E67008
:1049500003E9640770E375D90075D90075D900754E
:10496000D90075D90075D900EEF8EFF9E82404FAFA
:10497000E93400FBE82422F582E93400F583E0F510
:10498000D988828983A3A882A983EA687002EB6927
:1049900070E2EEF8EFF9E824031AE93400FBE824AA
:1049A00026F582E93400F583E0F5D988828983A36E
:1049B000A882A983EA687002EB6970E2EE242BF505
:1049C00082EF3400F583E0F5D9EE242CF582EF3444
:1049D00000F583E0F5D9EE242DF582EF3400F58360
:1049E000E0F5D9EE242EF582EF3400F583E0F5D919
:1049F000EE242FF582EF3400F583E0F5D9EE243074
:104A0000F582EF3400F583E0F5D9EE2431F582EF3D
:104A10003400F583E0F5D9EE2432F582EF3400F569
:104A200083E0F5D9EE2433F582EF3400F583E0F529
:104A3000D9EEF8EFF9E82405FAE93400FBE8245D43
:104A4000F582E93400F583E0F5D988828983A3A84B
:104A500082A983EA687002EB6970E2EE2437F5827E
:104A6000EF3400F583E0541FF8EE242AF582EF348A
:104A700000F583E0C43354E048F5D975E195901012
:104A8000CE74FDF0A3740AF0A37403F0A3740BF0CA
:104A9000A374F7F0A3740AF0A374F7F0A3740AF0F8
:104AA000A374F7F0A3740AF0A374F7F0A3740AF0E8
:104AB000A37409F0A3740BF09010DC74F7F0A374E6
:104AC0000AF0A374F7F0A3740AF0A374F7F0A374C8
:104AD0000AF0A374F7F0A3740AF0A374F7F0A374B8
:104AE0000AF0A374F7F0A3740AF09007EFE0F9124C
:104AF00022BD7AD67BBE7C897D8E120C357A557BA1
:104B0000557C557D00120BFF90600DE4F079011289
:104B10000C899004797406F00250CF74E812168B59
:104B20009007E0E0F8A3E0F5838882A3A3780C1255
:104B300014D39007F1E0FAF875F005A4C8ACF02C96
:104B4000F974D728F582740439F583E0FEA3E0FFF9
:104B5000EEC333FEEF33FF8E14F51575160075178F
:104B600000850C08850D09850E0A850F0B7510044C
:104B70007511007512007513007808791012143938
:104B8000780812189A850C08850D09850E0A850F7C
:104B90000B78087914121439780C7914121381E403
:104BA000F516F517780879141214728A0C750D0031
:104BB0007403780C121608E50D3395E0F50EF50F29
:104BC0007808790C121439750CFF750DFF750EFFFE
:104BD0007808790C12149AAA08AB09AC0A7D001265
:104BE000226874041216318A088B09A808A909C31F
:104BF000EE98EF995006E82EF8E93FF9E890600E3C
:104C0000F0E9A3F0EEA3F0EFA3F090600D74C1F013
:104C10007F1002175DC082C0839007C9E0F8A3E04F
:104C2000C82406F582E83400F583E4F0A3F0900789
:104C3000DD024707C082C0839007E0E0F8A3E0C828
:104C40002406F582E83400F583E4F0A3F09007EF42
:104C500002470702011F74F612168B9061D0E0F82C
:104C60007480C398FCEA2482F582EB3400F583E07B
:104C70006004780480027800E8240EF8ECC39850B1
:104C800003024D827C0C9007FBE4F0EA2476F58267
:104C9000EB3400F583E09007FCF0EA2477F8EB347E
:104CA00000F988828983E09007FDF088828983A3D8
:104CB000E09007FEF0EA2479F8EB3400F988828965
:104CC00083E09007FFF088828983A3E0900800F0DA
:104CD000EA247BF8EB3400F988828983E0900801AC
:104CE000F088828983A3E0900802F0EA247DF8EB43
:104CF0003400F988828983E0900803F088828983F0
:104D0000A3E0900804F0EA2474F8EB3400F98A82F6
:104D10008B83A3A3A3A3A3E0FEA3E0FF88828983E0
:104D2000E02EF0A3E03FF088828983E0900805F050
:104D300088828983A3E0900806F0EA2482F582EB5A
:104D40003400F583E060177508FB750907780812D1
:104D5000189E7903120AEB74021216317C1074014A
:104D60002CF5D975D9037582FB758307ECFEE0F548
:104D7000D9A31EEE70F875E1957904120C3B790108
:104D80008002790002527F74F612168B9061D0E097
:104D9000F87480C398FCEA2482F582EB3400F58332
:104DA000E06004780480027800E8240AF8ECC398F4
:104DB0005003024E7A7508089007FB7401F07CBF1F
:104DC0007D0778FC79077E058C828D83E088828957
:104DD00083F08C828D83A3AC82AD8388828983A388
:104DE000A882A9831EEE70E0EA2480FCEB3400FD6B
:104DF0008A828B83A3A3A3A3A3E0FEA3E0FF8C82FC
:104E00008D83E02EF0A3E03FF08C828D83E08882DA
:104E10008983F08C828D83A3AC82AD838882898361
:104E2000A308A9838C828D83E088828983F0EA2499
:104E300082F582EB3400F583E0601A7508FB750992
:104E400007780812189E7C087903120AEB74021284
:104E5000163175080C74012508F5D975D9037582CA
:104E6000FB758307AE08E0F5D9A31EEE70F875E177
:104E7000957904120C3B79018002790002527F740B
:104E8000F712168BEAFEEBFF9061D0E06003024F51
:104E90006675D91875D90375D903EEF8EFF9E824CA
:104EA00008FAE93400FBE8249BF582E93400F58335
:104EB000E0F5D988828983A3A882A983EA68700271
:104EC000EB6970E2EE24A3F582EF3400F583E0F5A0
:104ED000D9EE24A4F582EF3400F583E0F5D9EE2471
:104EE00093F582EF3400F583E5822408F8E58334F6
:104EF00000F9E0F5D9A3E865827003E9658370F2F3
:104F0000EE2487F582EF3400F583E5822404F8E58A
:104F1000833400F9E0F5D9A3E865827003E965837D
:104F200070F275E1957908EE2493FAEF3400FB12E4
:104F30000AA37904EE2487FAEF3400FB120AA3795E
:104F400004120C3BEE246FF582EF3400F583E0F899
:104F5000A3E0F9EE2471F582EF3400F583E8F0A3C5
:104F6000E9F07901800279000250CF74F612168BB5
:104F7000EAFEEBFF9007FB7406F07508FB75090766
:104F8000780812189E7C017903120AEB740212163B
:104F90003175D90675D9037582FB758307E0F5D99C
:104FA000A3E58264007004E583640870F075E19500
:104FB000900479E06408701EEE246FF582EF3400EF
:104FC000F583E0F8A3E0F9EE2471F582EF3400F503
:104FD00083E8F0A3E9F0790102527F74F612168B90
:104FE000EAFEEBFF9061D0E0705E9007FB740AF080
:104FF0007508FB750907780812189E7C0179031261
:105000000AEB740212163175D90675D9037582FB45
:10501000758307E0F5D9A3E58264007004E5836435
:105020000870F075E195EE246FF582EF3400F5839A
:10503000E0F8A3E0F9EE2471F582EF3400F583E89F
:10504000F0A3E9F079018002790002527F74F61230
:10505000168BEAFEEBFF9061D0E070667801900756
:10506000FB740BF0900479E0640770197508FB7508
:105070000907780812189E7C017903120AEB740262
:105080001216317805740128F5D975D9037582FB9C
:10509000758307E8FAE0F5D9A31AEA70F875E19587
:1050A000EE246FF582EF3400F583E0F8A3E0F9EE2B
:1050B0002471F582EF3400F583E8F0A3E9F079017B
:1050C0008002790002527FF0EEA2E092AF79007F79
:1050D0000102175D74F612168BEAFEEBFF9061D0A9
:1050E000E0F87480C398FAEE2482F582EF3400F57C
:1050F00083E06004780480027800E8240BF8EAC3B7
:105100009850030251AA7D099007FB7408F0EE2421
:10511000E4F8EF3400F97AFC7B077C088882898305
:10512000E08A828B83F088828983A3A882A9838AFC
:10513000828B83A3AA82AB831CEC70E0EE2482F501
:1051400082EF3400F583E0601D7508FB7509077870
:105150000812189E7C097903EEFAEFFB120AEB7431
:10516000021216317D0D74012DF5D975D9037582A2
:10517000FB7583078D08E0F5D9A31508E50870F6DF
:1051800075E1957904120C3BEE246FF582EF340043
:10519000F583E0F8A3E0F9EE2471F582EF3400F531
:1051A00083E8F0A3E9F079018002790002527F746C
:1051B000F612168BEAFEEBFF9061D0E0F87480C324
:1051C00098FAEE2482F582EF3400F583E0600478EB
:1051D0000480027800E82408F8EAC39850030252D9
:1051E0007D78069007FB740CF0900496E09007FC25
:1051F000F0900497E09007FDF0900498E09007FE8F
:10520000F0900499E09007FFF090049AE090080075
:10521000F0EE2482F582EF3400F583E0601B750820
:10522000FB750907780812189E7C067903EEFA12BE
:105230000AEB7402121631780A740128F5D975D96F
:10524000037582FB7583078808E0F5D9A31508E587
:105250000870F675E1957904120C3BEE246FF58227
:10526000EF3400F583E0F8A3E0F9EE2471F582EF66
:105270003400F583E8F0A3E9F07901800279007F3A
:105280000202175D74F612168BEAFEEBFF9061D0F6
:10529000E0F87480C398FAEE2482F582EF3400F5CA
:1052A00083E06004780480027800E82404F8EAC30C
:1052B00098500302535E78029007FBE8F0EE24F664
:1052C000F582EF3400F583E09007FCF0EE2482F5E0
:1052D00082EF3400F583E0601B7508FB75090778E1
:1052E0000812189E7C027903EEFA120AEB7402127D
:1052F00016317806740128F5D975D9037582FB75C6
:1053000083078808E0F5D9A31508E50870F675E16C
:1053100095EE2473F582EF3400F583E4F0EE247FFC
:10532000F582EF3400F583E4F0EE241DF582EF34CE
:1053300000F583E4F0A3F07904120C3BEE240DF5A4
:1053400082EF3400F583E0F8A3E0F9EE2471F582F2
:10535000EF3400F583E8F0A3E9F0790180027900E9
:1053600002527F74F612168B9061D0E0F87480C3FD
:1053700098FCEA2482F582EB3400F583E06004783F
:105380000480027800E82404F8ECC398405B7902BA
:105390009007FB7407F0EA24F7F582EB3400F583FD
:1053A000E09007FCF0EA2482F582EB3400F583E01C
:1053B00060187508FB750907780812189E7C0209A9
:1053C000120AEB74021216317906740129F5D975A7
:1053D000D9037582FB758307E9F8E0F5D9A318E8CE
:1053E00070F875E19579018002790002527F74F5B9
:1053F00012168BE9FCA2AFE433F50AC2AF7D008040
:10540000010DEA246EF582EB3400F583E0F8EDC37C
:1054100098501A8D08EA2508F8EB3400F9E8246A58
:10542000F582E93400F583E06C70D68024EA246EBE
:10543000F8EB3400F9E0FEEA2EFAEB3400FBEA2444
:105440006AF582EB3400F583ECF088828983E0040E
:10545000F0E50AA2E092AF7F0302175D74F6121620
:105460008BA2AFE433FDC2AFEA246EF582EB3400C9
:10547000F583E014F07C0060368C08EA2508F8EB30
:105480003400F9E8246BF582E93400F583E0C0E0EC
:10549000E8246AF582E93400F583D0E0F00CEA24D0
:1054A0006EF582EB3400F583E0F8ECC39840CAEA6D
:1054B000246DF582EB3400F58374FFF0EA2469F57E
:1054C00082EB3400F583E4F0EDA2E092AF02527F6C
:1054D000C082C083E5A8F8C2AFEA246AF582EB3443
:1054E00000F583E9F0EA2469F582EB3400F583E402
:1054F000F0E8A2E7A2E792AF02470C74F312168B12
:10550000EAFEEBFFECFAEDFB8A828B83A3A3A3A355
:10551000E0541FF0EE2436F582EF3400F583E4F01A
:10552000F50AEEFCEFFD8A828B83E0C0E0EC245D9F
:10553000F582ED3400F583D0E0F0750B00E50A3319
:10554000333354F8F50C8A828B83E0F50875090033
:10555000E50B78081215E9E508A2E0502FEE243695
:10556000F8EF3400F988828983E0F508EE2508F524
:1055700008EF3400F509E5082438F582E509340020
:10558000F583E50CF088828983E004F0050B050CB7
:10559000E50BC3940840AF050A8A828B83A3AA82D5
:1055A000AB838C828D83A3AC82AD83E50AC3940563
:1055B00050030255267F0502175D74F712168B9073
:1055C00004A5E0640370030258A07C0078A5790468
:1055D00088828983A3A3A3A3A3A3E0600302588EB8
:1055E000ECF875F005A4C8AAF02AF974A928FA7491
:1055F0000439FB8A828B83A3A37401F08A828B8394
:10560000A3A3A3E4F0EC8A828B83A3A3A3A3F0EA71
:105610002462F582EB3400F5837401F0EA2467F527
:1056200082EB3400F5837401F08A828B83A3A3A3F9
:10563000A3A3E4F0A3F08A828B83A3A3A3A3A3A3D1
:10564000A3F0A3F0EA240FF582EB3400F583740194
:10565000F0EA2435F582EB3400F583E4F0EA24180F
:10566000F582EB3400F583E4F0A3F0A3F0A3F0EAB5
:10567000241CF582EB3400F583E4F0EA241DF58266
:10568000EB3400F583E4F0A3F0EA247FF582EB34F9
:1056900000F583E4F0EA2473F582EB3400F583E44B
:1056A000F0EA2468F582EB3400F5837480F0EA2494
:1056B00069F582EB3400F583E4F0EA246EF582EBC1
:1056C0003400F583E4F0EA24ECF582EB3400F58352
:1056D000E4F0EA24EDF582EB3400F583E4F0EA240B
:1056E000EEF582EB3400F583E4F0EA24EFF582EB8B
:1056F0003400F583E4F0EA24F0F582EB3400F5831E
:10570000E4F0A3F0EA24F2F582EB3400F583E4F050
:10571000A3F0EA24F5F582EB3400F583E4F0EA2403
:1057200082F582EB3400F583E4F0EA24D2F582EBD3
:105730003400F583E4F0EA24D3F582EB3400F583FA
:10574000E4F0EA24D4F582EB3400F583E4F0A3F02E
:10575000A3F0A3F0EA24D8F582EB3400F583E4F05B
:10576000A3F0A3F0A3F0EA24DEF582EB3400F58386
:10577000E4F0EA24E0F582EB3400F583E4F0EA2477
:10578000DCF582EB3400F583E4F0EA24E1F582EB0A
:105790003400F583E4F0EA24E2F582EB3400F5838B
:1057A000E4F0EA24F8F582EB3400F583E4F0A3F0AA
:1057B000EA24FAF582EB3400F583E4F0A3F0EA245E
:1057C000FCF582EB3400F583E4F0A3F0EA24FEF567
:1057D00082EB3400F583E4F0A3F0EAF8EBF9E82477
:1057E00004FCE93400FDE8246AF582E93400F5831D
:1057F00074FFF088828983A3A882A983EC68700271
:10580000ED6970E2EAF8EBF97CBF7D078C828D834D
:10581000E0C0E0E8245DF582E93400F583D0E0F0F3
:105820008C828D83A3AC82AD8388828983A3A88276
:10583000A983EC64C47003ED640770D0EAF8EBF957
:105840007C8C7D048C828D83A3E0C0E0E824E4F5A9
:1058500082E93400F583D0E0F08C828D83A3AC82A2
:10586000AD8388828983A3A882A983EC64947003A2
:10587000ED640470CF9004A5E004F0640170258A03
:10588000828B83A3A3A3A3E09004A7F080160CE867
:105890002405F8E93401F9ECC3940350030255D010
:1058A0007A007B000250CFC082C0838A828B83A3A0
:1058B000A3A3E0600F8A828B83A3A3A3E4F09004E8
:1058C000A6E014F09004A5E014F070069004A7740C
:1058D000FFF08A828B83A3A3E4F09007C4E0700DED
:1058E0009004A6E0640170057900120C0502470CD3
:1058F000C082C08378A5790488828983A3A3A3A3E7
:10590000A3A3A3E4F088828983A3A3A3A3A3A3F002
:10591000E82405F8E93401F9E864B47003E96407A0
:1059200070D69004A5E4F0A3F0A374FFF075E1F144
:1059300002470C74F512168B750800750900750A7C
:10594000007EA97F048E828F83A3A3A3E0603DE540
:10595000084509602F850882850983E0F8A3E0F5F2
:10596000838882A3A31218B18E828F83E0F8A3E00C
:10597000F5838882A3A31214F112220F7404121665
:1059800031E97008EEF8EFF988088909050AEE2474
:1059900005FEEF3401FFE50AC3940340A8850882A1
:1059A000850983A3A3A3A3E0F902545774F7121641
:1059B0008B78FF79FF7E007CA97D048C828D83A388
:1059C000A3A3E0606274FF68700374FF697011EC58
:1059D0002473F582ED3400F583E06401703A802190
:1059E000EC2473F582ED3400F583E064017017EC6C
:1059F0002479F582ED3400F583C3E098A3E0995053
:105A000026EC24798015EC242EF582ED3400F58304
:105A1000C3E098A3E099500FEC242EF582ED3400FA
:105A2000F583E0F8A3E0F90EEC2405FCED3401FD6C
:105A3000EEC394034085C3EA98EB994004E8FAE981
:105A4000FB0250CF74F612168BEAFEEBFFEE2463D6
:105A5000F582EF3400F583E0F8A3E0F9E84970033C
:105A6000025AE9EE2463F8EF3400F97A007B00A2D1
:105A7000AFE433F508C2AF88828983E0FCA3E0FD80
:105A8000EC4D603A88828983E0FAA3E0FB8A828B3E
:105A900083E0FCA3E0FD88828983ECF0A3EDF08A2B
:105AA000828B83E4F0A3F088828983E0FCA3E0FD8D
:105AB000EC4D700A88828983A3A3E4F0A3F0E50883
:105AC000A2E092AF1211459007C5E004F09007C61E
:105AD000E004F0EE2463F582EF3400F583E0F8A3F0
:105AE000E0F9E8496003025A638E828F83A3A3A37F
:105AF000E0600F8E828F83A3A3A3E4F09004A6E05E
:105B000014F09004A5E014F070069004A774FFF060
:105B10008E828F83A3A3E4F09007C4E0700D9004FD
:105B2000A6E0640170057900120C05EEFAEFFB1295
