:020000040000FA
:060000000201070220A727
:030013000223893C
:03002B00022309A4
:030033000222EBBB
:03003B0002232A73
:0300530002211A6D
:03006B000222C5A9
:10008300021F13E5C754F84401F5C77901220000A4
:100093000080FB120086B900030200F1E4791A78AC
:1000A30002B800028004F709D8FCE4791C7802B88E
:1000B30000028004F709D8FCE490028178A4790E49
:1000C3008002F0A3D8FCD9FA7A247B109001377808
:1000D300E579018015E493A3AD82AE838A828B8395
:1000E300F0A3AA82AB838D828E83D8E9D9E7758288
:1000F300B27583D5740312011975829175830074E7
:100103000012011975D00075813F751881751902A8
:10011300759F00020096C09FF59FE473D09F22D085
:1001230083D082C09FE493C0E0740193C0E0740263
:1001330093F59F229503A703D1039B03FF0000B40C
:10014300000028002800283075A000A000A000A00F
:100153000000080008E001F000100010001000107B
:10016300001000100050005000500010001000D08C
:10017300070000000000000F0001000500307507B4
:10018300001000010081FF00000000FF020202EBEB
:1001930081010000DC8102E5810100007C1002DFA7
:1001A30081010000B20202E5810100007D1002F529
:1001B30081010000C802FFFF0100FF2002EB810163
:1001C3000000D98102E581010000AB1002E7810044
:1001D3000000000002E381030000A503F10AF10A15
:1001E300F10AF10AF10AF10AF10AF10AF10AF10A34
:1001F300F10AF10AF10AC50CE30CBF0CFFFF01E899
:1002030003053F10020A01FF000110278813FEFFB8
:100213000000000002000000120122FBC8031201CB
:100223002211C90312012240C90312012276C90314
:100233001201228DC903120122C4C903120122171C
:10024300CA031201222ECA0312012245CA03120154
:10025300224BFE0212012262FE0212012293FE02CF
:10026300120122CEFE02120122F8FE021201222204
:10027300FF0212012239FF0212012250FF02120172
:100283002267FF0212012290FF02120122A3FF0242
:10029300120122B9FF02120122E3FF021201227EA0
:1002A300B80212012282B902120122AFB90212016D
:1002B3002205BA0212012228BA021201223CBA0212
:1002C3001201223EBA0212012261BA021201227005
:1002D300BB0212012234BC0212012209BD02120127
:1002E300227ABD0212012206BE0212012209BE02B7
:1002F30012012291BE02120122CCBE02120122334C
:10030300BF021201226ABF02120122F8BF021201C8
:100313002282C002120122D1C002120122DEC002D7
:10032300120122E1C00212012241C1021201224C38
:10033300C102120122CBC102120122CEC10212015B
:1003430022E1C102120122E4C10212012273C2029C
:100353001201228DC2021201229DC202120122CD7C
:10036300C202120122DAC202120122DDC20212010A
:10037300225EC3021201224CC402120122FEC402F5
:10038300120122C5CF02120122C2D002120122445D
:10039300D10212012264D102120122ACD102120154
:1003A30022FFD10212012263D202120122F0D202F1
:1003B300120122AAD302120122B9D6021201224447
:1003C300D80212012267D802120122EBAF031201F5
:1003D3002288B103120122ECB1031201224BB203B2
:1003E30012012259B20312012282B20312012240E6
:1003F3008B03120122688B03120122968B031201D5
:1004030022CD8B031201222B8C03120122768C0343
:10041300120122C18C03120122018D031201224712
:100423008D03120122758D03120122328E031201F4
:10043300223C8E03120122498E031201227C8E0379
:10044300120122488F03120122548F031201226CDE
:100453008F03120122768F03120122F48F031201FC
:1004630022B8CF03120122C6CF03120122DECF032B
:10047300120122F6CF031201220ED0031201220031
:100483008002120122AC8002120122278102120192
:10049300224882021201228482021201222D830247
:1004A300120122148402120122788502120122CF42
:1004B3008502120122508602120122408702120194
:1004C300228D87021201221388021201224588021B
:1004D300120122598A021201229B8A02120122B9B5
:1004E3008A021201225B8B02120122238C02120167
:1004F30022308E0212012296B303120122ACB303FF
:10050300120122D2B303120122EEB403120122F824
:10051300B4031201222DB60312012225B7031201DF
:1005230022539A03120122F79A031201222A9B03F0
:10053300120122749B03120122379D03120122C868
:10054300AD0112012241AE0112012251AE0112018D
:10055300223FAF0112012264AF011201226FAF01EA
:1005630012012259B0011201220FB101120122F628
:10057300B201120122AFB4011201228BB5011201A3
:10058300223FB6011201227CB9011201222ABA01CB
:1005930012012299BB0112012219BD01120122C0CD
:1005A300BD0112012209BE0112012240BE01120146
:1005B30022DDBE0112012268BF011201221BD001FC
:1005C30012012270D001120122CFD101120122DFC8
:1005D300D1011201220CD20112012263D2011201B4
:1005E300220CD30112012213D401120122DDD40102
:1005F3001201223DD60112012280D60112012225C9
:10060300D7011201224BD70112012259D90112013C
:10061300225ED90112012263DB01120122B0DB0148
:1006230012012223DC0112012256DC01120122F8FD
:10063300DC01120122A1DD01120122D9DD01120127
:1006430022DCDD0112012224DE0112012266DE0119
:10065300120122BDDE0112012264BD0312012277C1
:10066300BD0312012285BD03120122CDBD03120178
:1006730022E3BD031201222ABE031201223EBF035D
:10068300120122CBBF0312012216C00312012263FF
:100693005F00120122735F00120122D65F00120174
:1006A300221B6000120122D16000120122AC610002
:1006B300120122D5610012012205620012012245B6
:1006C30064001201222C6600120122046800120148
:1006D30022486900120122AF6B00120122BD6C0097
:1006E3001201220F6E00120122196F001201225B08
:1006F3006F00120122936F00120122B56F001201E5
:1007030022187000120122DA74001201226F7500A0
:10071300120122C37500120122EA75001201222878
:100723007600120122477600120122A176001201FF
:1007330022A1770012012226780012012277F80203
:1007430012012281F80212012229F9021201226CFC
:10075300F90212012287F90212012217FA02120189
:10076300223FFA0212012277FA02120122AEFA02A2
:10077300120122D7FA0212012211FB0212012226D0
:10078300FB02120122F3FB0212012216FC021201E8
:100793002238FC021201224DFC02120122D3FC0278
:1007A3001201220DFD0212012285FD02120122CE49
:1007B300FD02120122F8FD0212012223FE021201A0
:1007C30022B0CB03120122498E02120122778E023C
:1007D300120122D28F02120122B29002120122D1FF
:1007E30090021201224E91021201229191021201F2
:1007F300220C93021201227B9302120122A695027C
:100803001201222A9802120122DB9802120122D13C
:100813009902120122719A021201226F9B021201A4
:1008230022FA9B021201225DCA03120122C6CA03E5
:100833001201221ACB0312012249CB031201226AAD
:10084300CB03120122D49E03120122419F03120102
:1008530022889F03120122A0A0031201229CA1035C
:100863001201227FA20312012260EB02120122A2D3
:10087300EB021201227BEC0212012275ED0212013E
:100883002257EE02120122C0EE02120122DCEF0215
:1008930012012248F0021201224BF00212012274CB
:1008A300F002120122EEF00212012293F102120170
:1008B30022A8F102120122EEF10212012207F20232
:1008C3001201220AF2021201226AFC01120122A67B
:1008D300FC01120122E4FC01120122AEFD0112010E
:1008E300221DFE0112012258FE0112012296FE0171
:1008F300120122C6FE01120122EDFE011201225B4A
:10090300FF011201229DFF01120122F88101120150
:1009130022178401120122FA85011201223686016F
:100923001201226386011201222A87011201227514
:100933008701120122C08701120122D2870112010D
:100943002212880112012246880112012294880191
:10095300120122C58801120122E888011201226FC7
:100963008901120122578A01120122448B011201CB
:10097300223D8C011201224C8E01120122EE9301C1
:100983001201223E9401120122B596011201224066
:10099300C003120122F5C1031201228C420012018D
:1009A300223B4300120122854300120122BB440073
:1009B300120122514600120122C6460012012207EB
:1009C3004700120122594700120122CA48001201AE
:1009D300220F4B00120122094C00120122284C0065
:1009E300120122474C001201224A4C001201227BC1
:1009F3004D00120122734E001201225F4F001201BB
:100A030022CF4F00120122415000120122C8500090
:100A1300120122A35100120122785200120122571F
:100A23005300120122E2530012012250540012011A
:100A330022C45400120122EF5400120122AE5500C9
:100A43001201229B5800120122E4580012012227AE
:100A53005900120122A05900120122385A00120132
:100A630022295B001201224E5B00120122945B00DB
:100A7300120122BE5B00120122065C0012012281D8
:100A83005C00120122DB5C00120122445E001201B1
:100A930022F25E00120122335F00120122AAAA028F
:100AA300120122F8AA0212012204AB02120122E26D
:100AB300AB0212012213AC0212012244AC02120156
:100AC30022C4AC02120122FCAC021201224EAD027E
:100AD3001201228BAD02120122A8AF02120122CE13
:100AE300B102120122B9B302120122A3B50212010B
:100AF30022F77F001201220080031201224B84039C
:100B03001201228F850312012216EE01120122CE59
:100B1300F001120122D4F0011201228EF30112011D
:100B2300225BF6011201227C900312012220910321
:100B3300120122F291031201221C92031201226A72
:100B43009403120122AC2400120122F624001201A4
:100B530022373300120122BC3400120122DF350098
:100B6300120122503C001201224B3D001201228847
:100B73003D00120122AB3D00120122ED3D001201A6
:100B830022F73D00120122E53E00120122DB3F0065
:100B93001201227440001201222FB70312012229ED
:100BA300B8031201229DB803120122DBB80312011C
:100BB300224FB903120122C8B903120122D1B9038A
:100BC300120122DDB903120122F2B903120122300C
:100BD300BA0312012246BA031201222EF2021201B3
:100BE300223BF20212012255F20212012294F20276
:100BF300120122D2F20212012237F3021201224C15
:100C0300F30212012263F30212012271F3021201B1
:100C13002280F30212012295F302120122AAF302A7
:100C2300120122B5F302120122C1F302120122CEF4
:100C3300F302120122DDF302120122E8F302120190
:100C4300220DF402120122B4F402120122C9F402A9
:100C5300120122DEF402120122F8F402120122131D
:100C6300F50212012230F5021201223BF5021201B4
:100C730022F7F502120122E3F60212012208F7021B
:100C830012012213F70212012228F7021201223C59
:100C9300F7021201229DF702120122A3F7021201A9
:100CA30022A9F702120122AFF702120122C7F702AB
:100CB300120122FAF7021201226FC50212012291D8
:100CC300C50212012271C60212012248C902120191
:100CD3002274CA0212012298CB021201224ACC02C8
:100CE300120122EBCC02120122809C021201220487
:100CF3009D02120122B39D02120122129F021201D0
:100D03002233A1021201221FA20212012254A202C3
:100D130012012276A20212012225A3021201221D30
:100D2300A50212012246A502120122D8A502120130
:100D3300220AA60212012217A6021201226EA6029D
:100D430012012294A60212012201A9021201220415
:100D5300AA021201225CAA02120122AADF011201D5
:100D630022B4E0011201229BE101120122A5E1015B
:100D7300120122C7E101120122D3E1011201226C07
:100D8300E3011201229BE301120122B7E4011201E4
:100D93002210E50112012276E60112012255E70134
:100DA300120122B1E7011201221EE80112012259A8
:100DB300E80112012298E80112012251EB0112010C
:100DC300226BEB01120122F7EB0112012205EC0168
:100DD3001201225EEC011201226CEC01120122DFEE
:100DE300EC0112012243ED011201228DED011201EA
:100DF300224AC4031201226FC403120122E1C40375
:100E03001201228D78001201229678001201229F8E
:100E13007800120122767900120122277B00120149
:100E2300225D7B00120122977B00120122CD7B0001
:100E3300120122077C001201223B7C00120122676F
:100E43007C00120122B07C00120122EA7C00120114
:100E530022337D001201228B7D00120122C07D000E
:100E63001201221B7E00120122557E00120122A6CE
:100E73007E00120122DC7E00120122167F00120185
:100E830022397F001201225DD10312012289D1038D
:100E9300120122E4D103120122EED103120122FE38
:100EA300D103120122D28503120122DC8503120130
:100EB300221A86031201226386031201229D8603EE
:100EC300120122F78603120122188703120122213D
:100ED30087031201227287031201229B87031201E7
:100EE30022A587031201221188031201229F88037E
:100EF300120122ED8803120122238903120122AA7F
:100F03008903120122EA8903120122228A031201B0
:100F130022348A03120122538A031201225C8A03B8
:100F2300120122168B03120122CDCD031201224B93
:100F3300C20312012281C203120122B7C2031201AA
:100F43002210C40312012225D4031201223BD4032D
:100F530012012245D403120122CDAB03120122E672
:100F6300AB031201228AAC03120122CAAC031201A1
:100F730022E3AC0312012217AD0312012264AD0375
:100F830012012298AD03120122DAAD03120122DE0F
:100F9300AF031201228FD403120122C7CE03120121
:100FA30022F0CE0312012219CF0312012231CF0303
:100FB30012012273CF03120122969503120122D547
:100FC30095031201225E9603120122739603120106
:100FD30022BE9603120122FD9603120122569703A5
:100FE300120122A59703120122F59703120122E9A8
:100FF3009803120122DE99031201221B9A031201A4
:101003002255D503120122CE9801120122449B01DD
:10101300120122BC9C01120122AE9D011201223356
:101023009E01120122AF9E01120122D49E011201E0
:10103300226AA201120122DEA201120122CAA30125
:1010430012012204A40112012244A401120122FE6E
:10105300A5011201222FA60112012282A60112016B
:1010630022CBA60112012239A7011201226BA7018B
:1010730012012283A70112012298A801120122A8BA
:10108300A801120122C7A901120122E9A901120133
:10109300221FAA01120122C4AB0112012244AC0196
:1010A30012012283AC011201229AAD01120122A77F
:1010B300D003120122B8D00312012205D603120174
:1010C3002244D603120122E5FF011201229ED2031C
:1010D300120122AED203120122C3D2031201222B28
:1010E300D303120122C9CC031201224ECD031201F4
:1010F30022B4CD0312012276C7031201229FC70334
:101103001201220AC8031201225BC803120122B48E
:10111300C80312012241A3031201224EA3031201A9
:1011230022CAA303120122A3A40312012260A7036C
:10113300120122EFC50312012244C603120122B297
:10114300C60312012222C70312012276BA03120137
:1011530022A0BA0312012275BB0312012269BC0348
:10116300120122ECBC0312012230E302120122ED30
:10117300E30212012228E40212012250E4021201C6
:1011830022B2E402120122FEE40212012257E50216
:10119300120122E8E502120122EAE602120122A765
:1011A300E80212012229E9021201228EE902120148
:1011B30022A5E902120122B5EA02120122F3EA0290
:1011C30012012245C00112012242C101120122BDB6
:1011D300C301120122A0C401120122A3C4011201FE
:1011E300226AC9011201226DC90112012270C901CB
:1011F3001201228ECA0112012208CB0112012229F7
:10120300CB0112012248CB01120122C3CB011201EF
:101213002212CC0112012231CC01120122FCCE0197
:10122300120122F3D40312012228D503120122460C
:10123300D5031201222ED30312012292D9021201E5
:1012430022C1D9021201220BDA0212012270DA0240
:101253001201224ED603120122A5A703120122086E
:10126300D20312012232D203120122B8D303120194
:1012730022D97F00E76670100809E766700A08093B
:10128300E76670040809E76622E066701008A3E0C9
:1012930066700A08A3E066700408A3E06622C3E050
:1012A3009608A3E09608A3E09608A3E096A2D26569
:1012B300D03322C3E7960809E7960809E796080999
:1012C300E79622C3E09608A3E09608A3E09608A356
:1012D300E09622C008C3E096F50808A3E09642080A
:1012E30008A3E096420808A3E09645087001D3D00E
:1012F3000822080808EAC0E0EBC0E086F0E7A4FA99
:10130300180986F0E7A42AFA180986F0E7A42AFA4E
:10131300180986F0E7A42AFA1986F0E7A4FBE5F09A
:101323002AFA190886F0E7A42BFBE5F03AFA190824
:1013330086F0E7A42BFBE5F03AFA18180986F0E7E4
:10134300A4C5F02BFBE43AFA1908E7C5F0C6A426B6
:10135300F6E5F03BFBE43AFA1886F0E7A4F6E5F08D
:101363000826F6E43B08F6E43A08F6D0E0FBD0E0C2
:10137300FA22E4CFC0E0E4CEC0E0E4CDC0E0E4CCA8
:10138300C0E075F020E626F608E633F608E633F605
:1013930008E633F6181818EC33FCED33FDEE33FE94
:1013A300EF33FFC3EC9709ED9709EE9709EF971910
:1013B3001919400FFFEC97FC09ED97FD09EE97FE15
:1013C300191906D5F0BFECF709EDF709EEF709EFA8
:1013D300F7191919D0E0FCD0E0FDD0E0FED0E0FF12
:1013E30022E4C396F608E496F608E496F608E49633
:1013F300F6226016080808C6C313C618C613C61813
:10140300C613C618C613C6D5E0EA22700908080831
:10141300226016181818C6C333C608C633C608C6D2
:1014230033C608C633C6D5E0EA22E627F60809E63E
:1014330037F60809E637F60809E637F622E026F616
:1014430008A3E036F608A3E036F608A3E036F62252
:10145300E026F008A3E036F008A3E036F008A3E0A6
:1014630036F022C3E697F60809E697F60809E697E9
:10147300F60809E697F622C3E096F008A3E096F093
:1014830008A3E096F008A3E096F022E657F60809D1
:10149300E657F60809E657F60809E657F622E05636
:1014A300F008A3E056F008A3E056F008A3E056F0D6
:1014B30022E667F60809E667F60809E667F608090B
:1014C300E667F622E0F608A3E0F608A3E0F608A331
:1014D300E0F622E6F008A3E6F008A3E6F008A3E6A8
:1014E300F022E0FAA3E0FBA3E0FCA3E0FD22EAF094
:1014F300A3EBF0A3ECF0A3EDF022E0F8A3E0F9A353
:10150300E0FAA3E0FB22E8F0A3E9F0A3EAF0A3EBFF
:10151300F022CAC0E0E6F0A308DAFAD0E0FA22CA61
:10152300C0E0E0A3C582CCC582C583CDC583F0A34B
:10153300C582CCC582C583CDC583DAE6D0E0CA2295
:10154300C3E498F8E499F91215848026C3E49AFA5F
:10155300E49BFBE920E7E9121584E498F8E499F9A0
:1015630022C3E498F8E499F9121584E498F8E4990D
:10157300F9C3E49AFAE49BFB22EB20E7CFE920E7E7
:10158300E0B90010BB0008E88AF084F8AAF022E46E
:10159300FBC8FA22EB70227B10C833C8C933C933A6
:1015A3005007C39AC3DBF280069A50012ADBEAC8CC
:1015B30033F4C8C933F4C9FA2275F008E4C833C850
:1015C300C933C933C99AC99B5004C92AC93BD5F049
:1015D300ECFBC833F4C8E4C9FA22600D08C6A2E7DD
:1015E30013C618C613C6D5E0F322600C08C6C3138E
:1015F300C618C613C6D5E0F422700422600D18C6BF
:10160300C333C608C633C6D5E0F41822251810AF75
:1016130008F518400C15198008F51840021519D261
:10162300AF2200C0D0251810AF08F518500C0519CB
:101633008008F51850020519D2AFD0D0222518F52D
:101643008210AF08F518400C15198008F5184002F0
:101653001519D2AF851983222518F582E43519F5BA
:1016630083222518F8E43519F9222518FAE43519E7
:10167300FB222518FCE43519FD22E4732518C582E5
:10168300C0E0E51934FFC583C0E0E518C3958224A3
:10169300F810AF088583198582188008858319851A
:1016A3008218D2AFCEF0A3E520F0A37808E608F0C5
:1016B300A3DEFAEFF0A3E58124FAF8E608F0A3E647
:1016C30008F0A3E608F0A30808E608F0A3E608F08C
:1016D300A315811581D0E0FED0E0F81581158115A1
:1016E30081E8C0E0EEC0E0222518C582C0E0E5191C
:1016F30034FFC583C0E0E518C3958224F910AF0811
:101703008583198582188008858319858218D2AF4D
:10171300CEF0A3E520F0A37808E608F0A3DEFAEF05
:10172300F0A3E58124FBF8E608F0A3E608F0A3089C
:1017330008E608F0A3E608F0A315811581D0E0FEC2
:10174300D0E0F815811581E8C0E0EEC0E0228519EC
:1017530083851882E0A3FEE0A3F5207808E0A3F6D2
:1017630008DFFAE0A3FFE0A3C0E0E0A3C0E0E0A34A
:10177300C0E0E0A3C0E0E0A3C0E010AF088582189A
:101783008583198008858218858319D2AFD083D0C9
:101793008202011F851983851882E0A3FEE0A3F569
:1017A300207808E0A3F608DFFAE0A3FFE0A3C0E097
:1017B300E0A3C0E0E0A3C0E0E0A3C0E010AF088571
:1017C30082188583198008858218858319D2AFD042
:1017D30083D08222C0D02518C582C0E0E51934FF2A
:1017E300C583C0E0E518C3958224F310AF08858351
:1017F300198582188008858319858218D2AFC8F0AD
:10180300A3E9F0A3EAF0A3EBF0A37908E709F0A3B7
:10181300D8FAECF0A3EDF0A3EEF0A3EFF0A3D0E041
:10182300F0A3D0E0F0A3D0E0F0A3E520F0A3E5F02F
:10183300F0A322851983851882E0C0E0A3E0F9A311
:10184300E0FAA3E0FBA37808E0F608A3DFFAE0FCE4
:10185300A3E0FDA3E0FEA3E0FFA3E0C0E0A3E0C09C
:10186300E0A3E0F5D0A3E0F520A3E0A3F5F010AFEB
:10187300088583198582188008858319858218D283
:10188300AFD082D083D0E0F8D0E032740480067405
:101893000280027401C0E0F404121640D0E0121575
:1018A30015227404800474028000CCC0E0EDC0E013
:1018B300E518C39CCCAD1950011D10AF068C188DD3
:1018C3001980068C188D19D2AF121522D0E0FDD0E5
:1018D300E0FC22D083D082E9C0E0E493A3C386F086
:1018E300C5F095F0F908E493A386F0C5F095F07080
:1018F3000BE493A3C3994005E9048002A3E475F0C4
:1019030002A42582F582E5F03583F583D0E0F9E47E
:1019130093A3C0E0E493C0E022D083D082ECC0E084
:10192300EDC0E0E493A3FCE493A3FDED4C600D1242
:101933001968EC24FFFCED34FFFD80EFE493A3FC76
:10194300E493A3FDED4C600D1219A7EC24FFFCED0D
:1019530034FFFD80EFD0E0FDD0E0FCE493A3C0E0D2
:10196300E493C0E022C0E0C3E49396087401939625
:1019730018400FE4936670080874019366187000AA
:101983007019A3A3C3E49396087401939618A3A3B1
:10199300400DD0E0D0E0D0E0021958A3A3A3A3A345
:1019A300A3D0E022C0E0C0F088F0E493667008089A
:1019B30074019366187000A8F0A3A3700BD0F0D045
:0F19C300E0D0E0D0E0021958A3A3D0F0D0E0228A
:1019D40074F51216EBEAFEEBFFEE2434F8EF340054
:1019E400F988088909EE2435F582EF3400F583E09F
:1019F400F8EE2437F582EF3400F583E0F50AEC8540
:101A04000AF0A4FCAAF0850AF0EDA42AFDE82CF85B
:101A1400E43DF97A257B00121584EA85088285095C
:101A240083F0F8740758F97401B900028004C333D1
:101A3400D9FCFAE8131313541FF8EE28F8EF340016
:101A4400F9E8245DF582E93400F583E05A6008EE94
:101A54002434F582EF802CEE2434F582EF3400F543
:101A640083E0C0E0EE2436F582EF3400F583E0F540
:101A7400F0D0E084A8F0EE28F8EF3400F9E8243838
:101A8400F582E93400F583E0F97F0402179774F5D1
:101A94001216EBEAFEEBFFEE2434F582EF3400F588
:101AA40083E0C0E0EE2435F582EF3400F583D0E026
:101AB400F08E828F83A3A3A3A3A3A3A3C082C08316
:101AC4008E828F83A3A3A3A3A3E0F8A3E0F9D0831A
:101AD400D082E0C398F508A3E099F509EE247FF5D8
:101AE40082EF3400F583E064017069EE2480F582AE
:101AF400EF3400F583E0F8A3E0F98E828F83A3A38B
:101B0400A3A3A3A3A3E0FCA3E0FD8E828F83A3A3DE
:101B1400A3A3A3E0FAA3E0FBC3EA9CEB9D5010C38C
:101B2400EC98ED99402EC3EA98EB995027800EC3A8
:101B3400EA98EB994007C3EC98ED9940177CBF7D78
:101B440007EEFAEFFB120A37EE247FF582EF34003A
:101B5400F583E4F0EE2434F8EF3400F9E8FCE9FD11
:101B6400EE2435F582EF3400F583E0F8EE2437F502
:101B740082EF3400F583E0F50AE508850AF0A4F560
:101B840008AAF0850AF0E509A42AF509E82508F869
:101B9400E43509F97A257B00121584EA8C828D8359
:101BA400F0F8740758F97401B900028004C333D9FA
:101BB400FCFAE8131313541FF8EE28F8EF3400F975
:101BC400E8245DF582E93400F583E05A6008EE24E8
:101BD40034F582EF802CEE2434F582EF3400F58363
:101BE400E0C0E0EE2436F582EF3400F583E0F5F052
:101BF400D0E084A8F0EE28F8EF3400F9E82438F5B2
:101C040082E93400F583E0F91222B1021A8D74EFEF
:101C14001216EB900479E064086005E06407702A0A
:101C24009061C8E060249004A7E0F4601DE0F875BA
:101C3400F005A4C8AAF02AF974A928FE740439FF8F
:101C44008E828F83A3A3A3E07003021D4290606081
:101C5400E0C0E0EE2468F582EF3400F583D0E0F0D4
:101C6400750CFB750D07750800750900E5D914F5A9
:101C74000AE5D95403F50E60177403650E605CE53C
:101C84000A6010EE2467F582EF3400F583E07003F8
:101C9400021D279007F6E06401602AEE2482F58293
:101CA400EF3400F583E06004780480027800850A4C
:101CB40008E508C398FA95E0FB12091D8A088B0908
:101CC400EA45097005120C9B8074EE2482F582EFBC
:101CD4003400F583E070048A0C8B0DE50A601285EC
:101CE4000C82850D83F50BE5D9F0A3150BE50B707C
:101CF400F6EE2482F582EF3400F583E0604474FC50
:101D0400250AF50A780C121892AC0AA90EEEFAEF1D
:101D1400FB120AEB7402121625E97026AA08AB0915
:101D2400121139793D8E828F83A3A3A3A3E0FA7B9A
:101D340000120803EEFAEFFB120A5B120B4B790058
:101D440080747403650E6056850A1075110078104E
:101D5400121892AC0CAD0DAA08AB09120AC7740292
:101D6400121625EE2468F582EF3400F583E06480D2
:101D74007004747F8001E0F50C780C121896E50E5F
:101D8400F50C780C121896A90AAC08AD099004A7B2
:101D9400E0FA7B001207C174021216258013900426
:101DA40079E06408700BAC0CAD0DEEFAEFFB120B8E
:101DB4001B120CA779017F0A02179774F51216EB10
:101DC40074FC12160FEAFEEBFF8908A2AFE433F5A8
:101DD40009C2AF806AEE2463F8EF3400F97A007B1D
:101DE40000A2AFE433F50AC2AF88828983E0FCA382
:101DF400E0FDEC4D603A88828983E0FAA3E0FB8A37
:101E0400828B83E0FCA3E0FD88828983ECF0A3ED60
:101E1400F08A828B83E4F0A3F088828983E0FCA3B8
:101E2400E0FDEC4D700A88828983A3A3E4F0A3F05B
:101E3400E50AA2E092AF1211399007C6E004F0EE71
:101E44002463F582EF3400F583E0F8A3E0F9E84970
:101E5400603DEE2463F582EF3400F583E02402FA5A
:101E6400A3E03400FBEA2402F50AEB3400F50B7816
:101E74000A1218928A828B83E0FCA3E0F9EEFAEF4F
:101E8400FB120A8B7402121625E97003021DD99005
:101E940007C6E060639007C7E0F89007C6E0C39800
:101EA400500C7402650870509007C8E0604A8E8236
:101EB4008F83A3A3A3A3E0851882851983F0A3E4E9
:101EC400F09007C6E0F8740212165BE8F0A3E4F0A1
:101ED4009007C6E0F89007C5E028F0740212165B7C
:101EE400AC82AD83851882851983AA82AB8379017C
:101EF4001207CD9007C6E4F0E509A2E092AF74049E
:101F0400121625021A8D0000851A87851BC622C069
:101F1400E0C0D0E8C0E0E9C0E0EAC0E0EBC0E0EC3B
:101F2400C0E0EDC0E0EEC0E0C008C009C00AC00BCC
:101F3400C082C083C0F0A2AFE433FEC2AF759B0081
:101F4400906182E0A2E05012E591A2E0500C7591FC
:101F5400FE7401651A7003121C12E0A2E55051E5EB
:101F640091A2E5504B7591DF900479E06407600518
:101F7400E0640870237401651A703579019004A730
:101F8400E0FA75F005A4CAA8F028FB74A92AFA742B
:101F9400043BFB121DBF8018E0640D701390049B7A
:101FA400E004F064287002E4F07A00E0F9120CAD69
:101FB400906182E0A2E6400302205AE591A2E64045
:101FC4000302205A7591BF900479E06405700812E9
:101FD4000BB7120BC38003120BBD751A00120C1D34
:101FE400E990047AF07900120BFF1209A77A017BB9
:101FF40000900478E0F9120EFF907803E0644270D8
:10200400559007FAE014F0704DC2AF122012007818
:102014001DD0E0F618D0E0F6E59F54077005750969
:10202400FF800375097FC4C0E0781CE6F50808E664
:102034005509F509740B78081215EDD0E02508F858
:10204400906270E0A2E740F8E8C333906272F090C7
:102054006270E0D2E0F0906181E0A2E35009E5E92A
:10206400A2E3500375E9F7A3E0A2E75009E591A2C2
:10207400E7500375917FEEA2E092AFD0F0D083D009
:1020840082D00BD00AD009D008D0E0FED0E0FDD039
:10209400E0FCD0E0FBD0E0FAD0E0F9D0E0F8D0D01A
:1020A400D0E032C0E0C0D0C082C083906183E0A29F
:1020B400E05009E5BFA2E0500375BFFEE0A2E15085
:1020C40009E5BFA2E1500375BFFDE0A2E25009E5B6
:1020D400BFA2E2500375BFFBE0A2E35009E5BFA233
:1020E400E3500375BFF7E0A2E45009E5BFA2E45052
:1020F4000375BFEFE0A2E55009E5BFA2E550037503
:10210400BFDFE0A2E65009E5BFA2E6500375BFBFFA
:10211400D083D0828088C0E0C0D0E8C0E0E9C0E0CD
:10212400EAC0E0EBC0E0ECC0E0EDC0E0C0F0E5A741
:10213400A2E6500FE5A1A2E6500953A7BF75A1BFBF
:1021440012217FE5A7A2E5500CE5A1A2E5500653B4
:10215400A7DF75A1DFE5A7A2E15009E5A1A2E1503F
:102164000375A1FDE5A7A2E2500CE5A1A2E2500689
:1021740053A7FB75A1FBD0F002209074F81216EB64
:10218400751A01900479E064067015120B6F8A8247
:102194008B83A3A3A3A3A3A3E0FAA3E0FB120BA541
:1021A400A2AFE433FED2AF90047FE0640170187AEA
:1021B400207B00900478E0F9120F7D7A207B009058
:1021C4000478E0F9120F05906182E0D2E6F09007FE
:1021D400F7E0602185C61B801690047EE0640170E0
:1021E40008E5C654F84405F5C653BEFC121F0C742A
:1021F40001651A60E4EEA2E092AF7F0102179774C2
:10220400ED1216EB8A088B098C0A8D0B74131216C7
:102214005B780C1214C77808790C1212B675100189
:102224007511C875120075130050127808790C12D4
:102234001466781079081212B650168010780C794A
:10224400081214667810790C1212B64004790180D1
:102254000279007F0C02179774ED1216EB8A088B33
:10226400098C0A8D0B741312165B780C1214C77840
:102274000C79081212B640117808790C121466AA67
:1022840008AB09AC0AAD0B802275100075110075FE
:1022940012007513017810790C12146678107908FD
:1022A40012142DAA10AB11AC12AD1380A6C082C0BB
:1022B40083E9906000F0D083D08222C2AF02000094
:1022C40022C0E074F21217D7A2AFE433FED2AFE516
:1022D40089A2E1500312110F758900C2C5EEA2E074
:1022E40092AF7F01021836C0E074F21217D7A2AF82
:1022F400E433FED2AFE58BA2E0500312110F758BCD
:1023040000C2E880D8C0E0C0D0E8C0E0E9C0E0E5A1
:10231400A8D2AFC2C7A2E7A2E792AFD0E0F9D0E05B
:10232400F8D0D0D0E032C0E074F11217D7C2E990EF
:102334001022E024F5F8A3E0340EF988828983E0C2
:10234400F5C1901022122417901022C3E0943CA3EC
:10235400E09400402B75083C750900780812189227
:102364007C007D007AF57B0E12125374021216253E
:102374009010F97401F0901022E4F0A3F0539AFB4A
:102384007F02021836C0E074F11217D790101FE0D4
:10239400707EC28B9010F9E4F0E5C1C0E09010208B
:1023A400E02431F8A3E0340FF988828983D0E0F087
:1023B400901020122417900F31E0642360299010AC
:1023C400F97401F0901020E4F0A3F0750828F509E1
:1023D40078081218927C007D007A317B0F12125318
:1023E40074021216258029901020E02430F8A3E00E
:1023F400340FF988828983E0642470149010F9748E
:1024040001F090101FF0121229901020E4F0A3F0B4
:10241400022384E02401F0A3E03400F02200202011
:102424002020202020202028282828282020202080
:102434002020202020202020202020202020881040
:1024440010101010101010101010101010100404A0
:1024540004040404040404041010101010101041A7
:102464004141414141010101010101010101010118
:1024740001010101010101010110101010101042AD
:1024840042424242420202020202020202020202E8
:0E2494000202020202020202021010101020C8
:1024A400FFFFFFFFFFFFFFFFC082C083784C790866
:1024B40088828983A3A3A3A3A3A3E4F08882898346
:1024C400A3A3A3A3A374FFF0E82418F8E93400F944
:1024D400E864AC7003E9640870D690084E74FFF0A9
:1024E40090084DE4F090084CF090084FF0A3F002EF
:1024F4003DA474EC12167F90084FE0F508A3E0F5B4
:1025040009E508450970061209A7023332850882D5
:10251400850983E014601814601524FE601124C436
:102524007003022D3824C07003022D38023332E0C8
:10253400F9120B5D8A0A8B0BAE0AAF0B9004A6E06E
:102544007003022936120A4FE9F875F005A4C8AAE7
:10255400F02AF974A928F50C740439F50D850C8258
:10256400F583E0F50AA3E0F50BAC0AFDEEFAEFFB08
:10257400120B57E9F50E7402650E70030228DE8E05
:10258400828F83E024FE600A24FE70030227C802BF
:102594003332EE65087003EF650960211209C590B6
:1025A40007DAE0640170169007D9E070107901121F
:1025B4000C6B120C3B120C657900120C71E50E6069
:1025C40021E5082415F582E5093400F583E060125D
:1025D4009007D5E0F8A3E0F9A3E0687003A3E069ED
:1025E4007042120BCF8A0C8B0D8C0E8D0F7510035D
:1025F400751100751200751300780C791012142DE2
:102604007510FF7511FF7512FF780C791012148E76
:102614008E828F83A3A3E50CF0A3E50DF0A3E50E52
:10262400F0A3E4F0E5082415F582E5093400F58308
:10263400E0640160030226E0850A82850B83A3A37C
:10264400750CF1750DFF750EFF750FFF780C1214E4
:1026540040780C12188E8E828F83A3A3C082C0830D
:102664009007D7E0F508A3E085080CF50DE4F50E16
:10267400F50FD083D082780C121440AA0CAB0DACA9
:102684000EAD0F1222037404121625E9701F8E82F8
:102694008F83A3A3C082C0839007D7E0F508A3E08B
:1026A400F509E4F50AF50BD083D0828014850A82FB
:1026B400850B83A3A37508F17509FF750AFF750BD4
:1026C400FF7808121440750CFF750DFF750EFF7529
:1026D4000F007808790C12148E022C30EE240EF5BB
:1026E40082EF3400F5831218A58E828F83A3A31280
:1026F40014E51222037404121625E964016003022E
:102704003253850A82850B83A3A3750CF1750DFFE3
:10271400750EFF750FFF780C121440780C12188E8A
:102724008E828F83A3A3C082C0839007D7E0F5086D
:10273400A3E085080CF50DE4F50EF50FD083D082E7
:10274400780C121440AA0CAB0DAC0EAD0F12220380
:102754007404121625E9701F8E828F83A3A3C0828E
:10276400C0839007D7E0F508A3E0F509E4F50AF57E
:102774000BD083D0828014850A82850B83A3A37532
:1027840008F17509FF750AFF750BFF7808121440EC
:10279400750CFF750DFF750EFF750F007808790C29
:1027A40012148EEE240EF582EF3400F583780812AD
:1027B40014D69007DDE06427700474258002E004D9
:1027C400F0023253EE65087003EF6509603190073B
:1027D400F1E0F91209CB850882850983E06402706F
:1027E4001E9007DAE0640170169007D9E070107942
:1027F40000120C6B120C3B120C657901120C71E582
:102804000E60129007EBE0F8A3E0F9A3E068700310
:10281400A3E0697039120BCF8A0C8B0D8C0E8D0FCF
:10282400751003751100751200751300780C79107A
:1028340012142D7510FF7511FF7512FF780C7910A5
:1028440012148E8E828F83A3A3780C1214D6850A59
:1028540082850B83A3A3750CF1750DFF750EFF75AF
:102864000FFF780C121440780C12188E8E828F830E
:10287400A3A3C082C0839007EDE0F508A3E0850818
:102884000CF50DE4F50EF50FD083D082780C1214FC
:1028940040AA0CAB0DAC0EAD0F1222037404121639
:1028A40025E9701F8E828F83A3A3C082C083900703
:1028B400EDE0F508A3E0F509E4F50AF50BD083D0C3
:1028C400828014850A82850B83A3A37508F1750998
:1028D400FF750AFF750BFF02303C8508828509836A
:1028E400E0640270139007DAE06401700B9007D97A
:1028F400E070057900120C6BE50C2404FEE50D3440
:1029040000FF8E828F83E0F9120B938E828F83E017
:102914009004A7F07902FA75F005A4CAA8F028FB80
:1029240074A92AFA74043BFB121DBFAA0AAB0B025A
:10293400332FEE65087003EF65098E828F83600381
:10294400022B52E024FE600A24FE7003022A8F0246
:10295400332BEE2415F582EF3400F583E0604C90C0
:1029640007D5E0F8A3E0F9A3E0687003A3E0696089
:102974003A120BCF8A088B098C0A8D0B750C0A75D9
:102984000D00750E00750F007808790C12142D785F
:102994000812188E8E828F83A3A31214E5122203C9
:1029A4007404121625E9600302332B120BCF8A0834
:1029B4008B098C0A8D0B750C03750D00750E007553
:1029C4000F007808790C12142D750CFF750DFF7526
:1029D4000EFF7808790C12148E8E828F83A3A3784D
:1029E400081214D6EE2415F582EF3400F583E06462
:1029F4000170328E828F83A3A3C082C0839007D7D5
:102A0400E0F508A3E0F509E4F50AD083D08278085C
:102A1400121440EE240EF582EF3400F58378081288
:102A240014D602332BEE240EF582EF3400F5831214
:102A340018A58E828F83A3A31214E51222037404B3
:102A4400121625E96401600302332B8E828F83A35F
:102A5400A3C082C0839007D7E0F508A3E0F509E49A
:102A6400F50AD083D0827808121440EE240EF58241
:102A7400EF3400F58378081214D69007DDE064275C
:102A8400700474258002E00402332A9007EBE0F816
:102A9400A3E0F9A3E0687003A3E0696037120BCFE9
:102AA4008A088B098C0A8D0B750C0A750D00750E3E
:102AB40000750F007808790C12142D780812188EFE
:102AC4008E828F83A3A31214E512220374041216B8
:102AD40025E97077EE2402F508EF3400F509120BAE
:102AE400CF8A0C8B0D8C0E8D0F751003751100752C
:102AF4001200751300780C791012142D7510FF75DF
:102B040011FF7512FF780C791012148E85088285D6
:102B14000983780C1214D6850882850983C082C083
:102B2400839007EDE0F508A3E0F509E4F50AF50B59
:102B3400D083D0827808121440EE240EF582EF344C
:102B440000F58378081214D61209D102332BE0243D
:102B5400FE600A24FE7003022C420233321209C5BD
:102B64009007DAE0640170169007D9E070107901DB
:102B7400120C6B120C3B120C657900120C7190074D
:102B8400D5E0F8A3E0F9A3E0687003A3E069603737
:102B9400120BCF8A088B098C0A8D0B750C0A750DE4
:102BA40000750E00750F007808790C12142D780842
:102BB40012188E8E828F83A3A31214E5122203743B
:102BC40004121625E97074EE2402F508EF3400F5BA
:102BD40009120BCF8A0C8B0D8C0E8D0F751003759B
:102BE4001100751200751300780C791012142D75EC
:102BF40010FF7511FF7512FF780C791012148E8571
:102C04000882850983780C1214D685088285098385
:102C1400C082C0839007D7E0F508A3E0F509E4F586
:102C24000AF50BD083D0827808121440EE240EF5F6
:102C340082EF3400F58378081214D60232539007D9
:102C4400F1E0F91209CB850882850983E0640270FA
:102C54001E9007DAE0640170169007D9E0701079CD
:102C640000120C6B120C3B120C657901120C719062
:102C740007EBE0F8A3E0F9A3E0687003A3E0696060
:102C840037120BCF8A088B098C0A8D0B750C0A75C9
:102C94000D00750E00750F007808790C12142D784C
:102CA4000812188E8E828F83A3A31214E5122203B6
:102CB4007404121625E97079EE2402F8EF3400F951
:102CC40088088909120BCF8A0C8B0D8C0E8D0F7519
:102CD4001003751100751200751300780C79101229
:102CE400142D7510FF7511FF7512FF780C791012F1
:102CF400148E850882850983780C1214D68508827F
:102D0400850983C082C0839007EDE0F508A3E0F550
:102D140009E4F50AF50BD083D0827808121440EE4A
:102D2400240EF582EF3400F58378081214D61209C4
:102D3400D10233259004A6E07003023149120A4FF0
:102D4400E9F875F005A4C8AAF02AF974A928F510C1
:102D5400740439F511851082F583E0F508A3E0F5D4
:102D6400099004A7E0F875F005A4C8AAF02AF9743C
:102D7400A928F50C740439F50D90084DE05407703A
:102D840003023057A3E0F9120B5D8A0A8B0BAE0ADB
:102D9400AF0BAC08AD09120B57E9F50E7402650EC2
:102DA4007003023057850C82850D83A3A3A3A3E08F
:102DB400F875F08AA4C8AAF02AF974B128F50A743F
:102DC4000839F50BAA0AFB120B87AA0AAB0B120BE4
:102DD4008175128075130078121218927C007D6040
:102DE400E50A2406FAE50B3401FB120AC774021241
:102DF4001625A80AA90B906195E0C0E0E82486F5A1
:102E040082E93401F583D0E0F0906196E0C0E0E817
:102E14002487F582E93401F583D0E0F0906197E0EE
:102E2400C0E0E82488F582E93401F583D0E0F0902D
:102E34006198E0C0E0E82489F582E93401F583D0A3
:102E4400E0F08E828F83E024FE600A24FE70030289
:102E54002F620230571209C59007DAE0640170113D
:102E64009007D9E0700B120C3B120C657900120C20
:102E740071E50E60129007D5E0F8A3E0F9A3E068CD
:102E84007003A3E0697036120BCF8A0C8B0D8C0E85
:102E94008D0F751003751100751200780C791012DE
:102EA400142D7510FF7511FF7512FF780C7910122F
:102EB400148E8E828F83A3A3780C1214D685088275
:102EC400850983A3A3750CF1750DFF750EFF750FAE
:102ED400FF780C121440780C12188E8E828F83A304
:102EE400A3C082C0839007D7E0F50CA3E0F50DE4FE
:102EF400F50EF50FD083D082780C121440AA0CABD7
:102F04000DAC0EAD0F1222037404121625E9701FC6
:102F14008E828F83A3A3C082C0839007D7E0F50875
:102F2400A3E0F509E4F50AF50BD083D0828014857B
:102F34000882850983A3A37508F17509FF750AFF43
:102F4400750BFF7808121440750CFF750DFF750E94
:102F5400FF750F007808790C12148E023244900722
:102F6400F1E0F91209CBE50E60129007EBE0F8A34B
:102F7400E0F9A3E0687003A3E0697036120BCF8A0E
:102F84000C8B0D8C0E8D0F751003751100751200CE
:102F9400780C791012142D7510FF7511FF7512FF3E
:102FA400780C791012148E8E828F83A3A3780C125E
:102FB40014D6850882850983A3A3750CF1750DFFCA
:102FC400750EFF750FFF780C121440780C12188ED2
:102FD4008E828F83A3A3C082C0839007EDE0F50C9B
:102FE400A3E0F50DE4F50EF50FD083D082780C1232
:102FF4001440AA0CAB0DAC0EAD0F122203740412D4
:103004001625E9701F8E828F83A3A3C082C083908C
:1030140007EDE0F508A3E0F509E4F50AF50BD08324
:10302400D0828014850882850983A3A37508F1756D
:1030340009FF750AFF750BFF7808121440750CFF21
:10304400750DFF750EFF750F007808790C12148E3C
:10305400023313E510650C7004E511650D7003026D
:103064003127850C82850D83A3A3A3E0700302316D
:103074000B850C82850D83A3A3A3A3E0F875F08AC6
:10308400A4C8AAF02AF974B128FE740839FFEEFA2C
:10309400EFFB120B87EEFAEFFB120B81750A8075BA
:1030A4000B00780A1218927C007D60EE2406FAEF79
:1030B4003401FB120AC77402121625906195E0C010
:1030C400E0EE2486F582EF3401F583D0E0F09061E0
:1030D40096E0C0E0EE2487F582EF3401F583D0E07A
:1030E400F0906197E0C0E0EE2488F582EF3401F5BA
:1030F40083D0E0F0906198E0C0E0EE2489F582EF9F
:103104003401F583D0E0F0E5102404FEE511340029
:10311400FF8E828F83E0F9120B938E828F83E0906F
:1031240004A7F079029004A7E0FA75F005A4CAA8F0
:10313400F028FB74A92AFA74043BFB121DBFAA08E9
:10314400AB0902332F90084DE05407700302333269
:10315400A3E0F9120B5D8A088B09AE08AF098E82D1
:103164008F83E024FE600A24FE700302325B023384
:10317400321209C59007DAE0640170169007D9E0AD
:1031840070107901120C6B120C3B120C6579001251
:103194000C719007D5E0F8A3E0F9A3E0687003A3ED
:1031A400E0696037120BCF8A088B098C0A8D0B7586
:1031B4000C0A750D00750E00750F007808790C1255
:1031C400142D780812188E8E828F83A3A31214E50F
:1031D4001222037404121625E97074EE2402F50811
:1031E400EF3400F509120BCF8A0C8B0D8C0E8D0F6A
:1031F400751003751100751200751300780C7910A1
:1032040012142D7510FF7511FF7512FF780C7910CB
:1032140012148E850882850983780C1214D68508C9
:1032240082850983C082C0839007D7E0F508A3E0B4
:10323400F509E4F50AF50BD083D08278081214401E
:10324400EE240EF582EF3400F58378081214D6903C
:10325400084E740202332A9007F1E0F91209CB9068
:1032640007EBE0F8A3E0F9A3E0687003A3E069606A
:1032740037120BCF8A088B098C0A8D0B750C0A75D3
:103284000D00750E00750F007808790C12142D7856
:103294000812188E8E828F83A3A31214E5122203C0
:1032A4007404121625E97076EE2402F8EF3400F95E
:1032B40088088909120BCF8A0C8B0D8C0E8D0F7523
:1032C4001003751100751200751300780C79101233
:1032D400142D7510FF7511FF7512FF780C791012FB
:1032E400148E850882850983780C1214D685088289
:1032F400850983C082C0839007EDE0F508A3E0F55B
:1033040009E4F50AF50BD083D0827808121440EE54
:10331400240EF582EF3400F58378081214D61209CE
:10332400D190084E7404F0EEFAEFFB120B517F0CAF
:1033340002175174F012167FEAFEEBFFEE2402F836
:10334400EF3400F988088909EE2406F8EF3400F90F
:10335400880A890B8882F5831218A9850882850951
:10336400831214E5120BAB7402121625850A8285AA
:103374000B831218A98508828509831214E5120BA0
:103384009F7402121625EE240EF582EF3400F583A5
:103394001214E5120BB18E828F83E06440701CEE30
:1033A4002412F8EF3400F988828983E0906064F095
:1033B40088828983A3E09060658006906064E4F06D
:1033C400A3F090084FEEF0A3EFF0EE2416F582EF91
:1033D4003400F583E0F8A3E0F583888212167D902B
:1033E4006054E4F0A3F0A3F0A3F0A3F0A3F0A3F0DF
:1033F400A3F0A3F0A3F0A3F0A3F0906182E0C2E6EF
:10340400F07591BFEE2415F582EF3400F583E06486
:10341400017003120BE1E5E170FCEE2414F582EF78
:103424003400F583E0F46003E0F5E1EE2415F58261
:10343400EF3400F5837401F090047FE0640170734D
:10344400120BCF8A088B098C0A8D0B780812188E00
:103454008E828F83A3A31214E512225C74041216C5
:10346400258A088B098C0A8D0B750C05750D007562
:103474000E00750F007808790C1212F574037808A1
:103484001213F5E50824F4F508E5093401F509906B
:1034940007F7E06003120F29E4F50AF50B78081228
:1034A400188E7A207B00900478E0F9120F7174046E
:1034B4001216257F0802175174EA12167FEAFEEBF2
:1034C400FF8C148D15EE4F70030235D8120BCF8A82
:1034D400088B098C0A8D0B750C01750D00750E0097
:1034E400750F007808790C12142D750CFF750DFFFB
:1034F400750EFF7808790C12148E8E828F83E06427
:103504000270149007D5E0F8A3E0F9A3E068700313
:10351400A3E06970248017E06404701D9007EBE059
:10352400F8A3E0F9A3E0687003A3E069700B8E824E
:103534008F83A3A378081214D675101A7511007519
:103544001200751300780812188E8514828515836D
:10355400A3A31214E512225C74041216258A0C8BA0
:103564000D8C0E8D0F7810790C1212B640668514EE
:1035740082851583A3A3750CE7750DFF750EFF7582
:103584000FFF780C121440780C12188E8E828F83E1
:10359400A3A31214E51222037404121625E970344D
:1035A400750C07750D00750E00750F007808790C01
:1035B40012142D780812188E8E828F83A3A31214EE
:1035C400E51222037404121625E9700479008006BA
:1035D4007901800279027F0E02175174F012167F6E
:1035E400890874FF6508600302376D90084DE05444
:1035F400077003023C497A00784C790888828983F1
:10360400A3A3A3A3A3E06404703FEA75F018A4F88D
:10361400A9F0745228F582740839F583E0640170C6
:10362400377A00784C790888828983A3A3A3A3A35B
:10363400E0640460030236C288828983A3A3A3A33F
:10364400A3A3E06401707780630AE82418F8E934DE
:1036540000F9EAC3940440A47A00784C790888827B
:103664008983A3A3A3A3A3E064017067EA75F01898
:10367400A4F8A9F0745228F582740839F583E0643B
:103684000170627A00784C790888828983A3A3A3A5
:10369400A3A3E06401600302374988828983A3A35A
:1036A400A3A3A3A3E064016003023749EA75F018F9
:1036B400A4F8A9F0745128FA740839023C460AE8BF
:1036C4002418F8E93400F9EAC39404500302362BB1
:1036D400023C490AE82418F8E93400F9EAC39404DE
:1036E40050030236627A00784C790888828983A371
:1036F400A3A3A3A3E064027061EA75F018A4F8A977
:10370400F0745228F582740839F583E06401705925
:103714007A00784C790888828983A3A3A3A3A3E0C1
:103724006402707A88828983A3A3A3A3A3A3E06419
:1037340001706BEA75F018A4F8A9F0745128FA74B2
:103744000839FB806F0AE82418F8E93400F9EAC361
:103754009404500302368D023C490AE82418F8E91F
:103764003400F9EAC3940440827A00784C790888DA
:10377400828983A3A3A3A3A3E06508703A888289FE
:1037840083A3A3A3A3A3A3E06401702BEA75F01899
:10379400A4F8A9F0745128FE740839FF802C0AE8B3
:1037A4002418F8E93400F9EAC39404500302371AE0
:1037B4007A007B00023C4D0AE82418F8E93400F949
:1037C400EAC3940440A97E007F007A00784C79080B
:1037D40088828983A3A3A3A3A3E06508701BEA7569
:1037E400F018A4F8A9F0745228F582740839F58306
:1037F400E0640170137A0180110AE82418F8E934AE
:1038040000F9EAC3940440C87A00E508146010146F
:10381400700302398424FE7003023A97023C497B08
:1038240000784C790888828983A3A3A3A3A3E064C6
:10383400027052EB75F018A4F8A9F0745228F582BE
:10384400740839F583E06401704A7B00784C790888
:1038540088828983A3A3A3A3A3E06402600302383C
:10386400F288828983A3A3A3A3A3A3E06401707E47
:10387400EB75F018A4F8A9F0745128F50A74083906
:10388400F50B02390A0BE82418F8E93400F9EBC304
:10389400940440917B00784C790888828983A3A39F
:1038A400A3A3A3E06404600302394BEB75F018A4EE
:1038B400F8A9F0745228F582740839F583E064019C
:1038C400600302395D7B00784C790888828983A380
:1038D400A3A3A3A3E06404600302396888828983F4
:1038E400A3A3A3A3A3A3E064017079023AEB0BE8BA
:1038F4002418F8E93400F9EBC39404500302385453
:10390400750A00750B00EAA2E05035850A82850B22
:1039140083A3A3750CF6750DFF750EFF750FFF7865
:103924000C121440780C12188E8E828F83A3A3126B
:1039340014E51222037404121625E97003023C43B1
:10394400AA0AAB0B023C4D0BE82418F8E93400F941
:10395400EBC39404500302389EEAA2E0501BEEFA33
:10396400EFFB80190BE82418F8E93400F9EBC39451
:103974000450030238CF023B907A007B00023C4D96
:103984007B00784C790888828983A3A3A3A3A3E04E
:1039940064047040EB75F018A4F8A9F0745228F58B
:1039A40082740839F583E0640170387B00784C79BF
:1039B4000888828983A3A3A3A3A3E0640460030209
:1039C4003A4988828983A3A3A3A3A3A3E0640170D3
:1039D40074023AEB0BE82418F8E93400F9EBC394C9
:1039E4000440A37B00784C790888828983A3A3A32D
:1039F400A3A3E064017063EB75F018A4F8A9F07454
:103A04005228F582740839F583E06401705B7B0009
:103A1400784C790888828983A3A3A3A3A3E06401D3
:103A2400705288828983A3A3A3A3A3A3E064017033
:103A340043EB75F018A4F8A9F0745128F50A74083A
:103A440039F50B80440BE82418F8E93400F9EBC38A
:103A5400940450030239B5023B900BE82418F8E9AA
:103A64003400F9EBC394044080EAA2E0501EEEFA5D
:103A7400EFFB801C0BE82418F8E93400F9EBC3943D
:103A8400044091750A00750B00023B967A007B0096
:103A9400023C4D7B00784C790888828983A3A3A3D8
:103AA400A3A3E064017055EB75F018A4F8A9F074B1
:103AB4005228F582740839F583E06401704D7B0067
:103AC400784C790888828983A3A3A3A3A3E0640123
:103AD4006003023B7E88828983A3A3A3A3A3A3E0FC
:103AE40064016003023B7EEB75F018A4F8A9F0743E
:103AF4005128F50A740839F50B023B960BE8241893
:103B0400F8E93400F9EBC39404408E7B00784C79D7
:103B14000888828983A3A3A3A3A3E06402600302A9
:103B24003BD5EB75F018A4F8A9F0745228F582740B
:103B34000839F583E064016003023BE77B00784CBD
:103B4400790888828983A3A3A3A3A3E06402600302
:103B5400023BEE88828983A3A3A3A3A3A3E0640109
:103B64006003023BEEEB75F018A4F8A9F074512839
:103B7400F50A740839F50B023C060BE82418F8E939
:103B84003400F9EBC394045003023AC8750A007573
:103B94000B00EAA2E04003023944850A82850B83C4
:103BA400A3A3750CF6750DFF750EFF750FFF780C4A
:103BB400121440780C12188E8E828F83A3A31214D1
:103BC400E51222037404121625E9600302394480C5
:103BD4006E0BE82418F8E93400F9EBC3940450039D
:103BE400023B15EAA2E0505D80550BE82418F8E981
:103BF4003400F9EBC394045003023B46750A007584
:103C04000B00EAA2E04003023944850A82850B8353
:103C1400A3A3750CF6750DFF750EFF750FFF780CD9
:103C2400121440780C12188E8E828F83A3A3121460
:103C3400E51222037404121625E96003023944EEE6
:103C4400FAEFFB80047A007B000234B774F6121694
:103C54007F8909750800784C790888828983A3A331
:103C6400A3A3A3A3E06003023D2CE50875F018A408
:103C7400F8A9F0745128FE740839FF8E828F83A34B
:103C84007401F08E828F83E509F0120BCF8E828F40
:103C940083A3A31214F18E828F83A3A3A3A3A3A34C
:103CA400E4F0A3F0EE240EF582EF3400F58374FF04
:103CB400F0A3F0A3F0A3F0EE2414F582EF3400F5A2
:103CC400837401F0EE2415F582EF3400F58374015A
:103CD400F0EE2416F582EF3400F583E4F0A3F090BF
:103CE400084DE04509F090084CE004F06401600CD4
:103CF400748065096006744065097019E50875F0FB
:103D040018A4F8A9F0745128F8740839F990084FE8
:103D1400E8F0A3E9F0E50875F018A4F8A9F07451E7
:103D240028FA740839FB80180508E82418F8E934DF
:103D340000F9E508C394045003023C5E7A007B005A
:103D440080007F02021751C082C0838A828B83E085
:103D5400F8A3E0F98A828B83E4F0A3F08882898354
:103D6400A3F088828983E0F4F890084DE058F0903D
:103D7400084CE014F0700B90084FE4F0A3F09004AA
:103D840079F0801CC082C08390084CE0600A9008DF
:103D94004FE0FAA3E0FB80047A007B008002E0F9A4
:103DA400D083D08202011FC082C083E9FB7A0078ED
:103DB4004C790888828983A3A3A3A3A3E06B70161C
:103DC400EA75F018A4F8A9F0745228F58274083939
:103DD400F583E0F980110AE82418F8E93400F9EAD7
:103DE400C3940440CE790080B7C082C08390084C4D
:103DF400023DA274F612167FEAFEEBFF9061D0E05A
:103E0400C0E0EE2400F582EF3401F583D0E0F090B9
:103E140061D7E0F89061D5E0C398547FC0E0EE2408
:103E240001F582EF3401F583D0E0F09061D6E0C370
:103E340098547FC0E0EE2402F582EF3401F583D07C
:103E4400E0F0701A9061C5E0A2E45012E0A2E750DD
:103E54000DEE2402F582EF3401F5837480F0120C28
:103E640095EE2401F582EF3401F583E07034EE24FD
:103E740002F582EF3401F583E070279061C5E0A27A
:103E8400E4501FE0A2E7501AEE2402F582EF340159
:103E9400F5837480F0EE2401F582EF3401F5837428
:103EA40080F075E1957800EE2400F582EF3401F599
:103EB40083E060279061D3E0C0E08808EE2508F530
:103EC40082EF3400F583D0E0F008EE2400F582EFB1
:103ED4003401F583E0F9E8C39940D975E191023DD5
:103EE4004674F612167FEAFEEBFF9061C8E0C0E06C
:103EF400EE2403F582EF3401F583D0E0F09061CF36
:103F0400E0F89061CDE0C398547FC0E0EE2404F55E
:103F140082EF3401F583D0E0F09061CEE0C3985491
:103F24007FC0E0EE2405F582EF3401F583D0E0F0A4
:103F3400701A9061C5E0A2E05012E0A2E3500DEEC9
:103F44002405F582EF3401F5837480F0120C9BEEA6
:103F54002404F582EF3401F583E07034EE2405F592
:103F640082EF3401F583E070279061C5E0A2E05050
:103F74001FE0A2E3501AEE2405F582EF3401F58325
:103F84007480F0EE2404F582EF3401F5837480F03C
:103F9400120CA17A00EE2403F582EF3401F583E0DC
:103FA400602F9061CBE0C0E08A08EE2508F8EF347A
:103FB40000F9E82480F582E93400F583D0E0F00AC2
:103FC400EE2403F582EF3401F583E0F8EAC3984068
:103FD400D175E181023D4674F412167F8908A80860
:103FE400E875F08AA4C8AAF02AF974B128FE740806
:103FF40039FFEEFAEFFB120B87EEFAEFFB120B819F
:10400400750A80750B00780A1218927C007D60EEA8
:104014002406FAEF3401FB120AC774021216259023
:104024006195E0C0E0EE2486F582EF3401F583D09B
:10403400E0F0906196E0C0E0EE2487F582EF340171
:10404400F583D0E0F0906197E0C0E0EE2488F5823B
:10405400EF3401F583D0E0F0906198E0C0E0EE2405
:1040640089F582EF3401F583D0E0F07F0402175123
:1040740074F212167F8908A808E875F08AA4C8AA01
:10408400F02AF974B128F8740839F99061C6E0FD92
:10409400E054F0F075E1817C00E82403F582E93412
:1040A40001F583E0602B8C0AE8250AFAE93400FB69
:1040B400EA2480F582EB3400F583E09061CAF00CC9
:1040C400E82403F582E93401F583E0FAECC39A406D
:1040D400D5E82405F582E93401F583E060049061B4
:1040E400CEF0E82404F582E93401F583E06004901D
:1040F40061CDF0ED9061C6F0A808E875F08AA4C817
:10410400AAF02AF974B128F8740839F9E0FCE054EB
:104114000FF075E1917A00E82400F582E93401F5A5
:1041240083E060238A0AE8250AF582E93400F583EE
:10413400E09061D2F00AE82400F582E93401F583C5
:10414400E0FBEAC39B40DDE82402F582E93401F593
:1041540083E060049061D6F0E82401F582E934013B
:10416400F583E060049061D5F0EC9061C6F08508B9
:1041740082AE82EEF875F08AA4C8AAF02AF974B166
:1041840028F50A740839F50B750C80750D00780C48
:10419400121892E50A2406FCE50B3401FD7A007B33
:1041A40060120AC77402121625A80AA90BE824860D
:1041B400F582E93401F583E0906195F0E82487F510
:1041C40082E93401F583E0906196F0E82488F58271
:1041D400E93401F583E0906197F0E82489F582E9F8
:1041E4003401F583E0906198F0EE75F005A4CEA853
:1041F400F028FF74A92EF58274043FF583E0F8A338
:10420400E0F5838882E0648070419010CC7409F0FA
:10421400A3740BF0A374F1F0A3740AF0A37409F06F
:10422400A3740BF0A37409F0A3740BF0A374F1F05E
:10423400A3740AF0A37409F0A3740BF0A3740FF031
:10424400A3740BF0900479740880059004797407C2
:10425400F09010DA74F1F0A3740AF0A374F1F0A3EF
:10426400740AF0A374F1F0A3740AF0A374F1F0A338
:10427400740AF0A374F1F0A3740AF0A374F1F0A328
:10428400740AF07F06021751C082C0839061907453
:1042940004F0A37448F0A37402F09061807440F0B9
:1042A4009061BC7403F09061877419F09062657436
:1042B4001BF0906249E0C3941390619C400A740916
:1042C400F090606674018007740DF0906066E4F00D
:1042D40090619A7433F0A37455F09061A0743AF02D
:1042E4009007F5E064017009C29190047D746780C1
:1042F4000590047D7461F09024AAE493906186F0A3
:104304009024A4E493F46027E493540FF890618517
:10431400E0686012E5C654804449F5C6E59E547FC2
:10432400644970F8E8F053C680E59E547F70FA79CA
:1043340005120C8F024700C082C083E5A8F853A879
:104344007E906181E4F0A3F0A3F0C2BA539AFEC256
:1043540089759B00C2C275E90075910075BF00752F
:10436400A91175B905906181F0A374C0F0A3E4F0BC
:10437400D2BA439A0174805842A8024700F0024717
:1043840000C082C08374F812160F90047BE0F8A377
:10439400E0F9E84970030244B390047BE0544060C0
:1043A400237908851882851983AA82AB83120AA906
:1043B400851882851983AA82AB831207A990047B8E
:1043C400E054BFF0E054806010790C7A1B7B081233
:1043D4000AA990047BE0547FF0E0A2E050319061A0
:1043E4009A7433F0A37455F09061A0743AF0900776
:1043F400F5E064017009C29190047D7467800590B2
:10440400047D7461F01207AF90047BE054FEF0E089
:104414005402603190619A743FF0A3745AF0906131
:10442400A0747FF09007F5E064017009D2919004C4
:104434007D7471800590047D746AF01207AF900456
:104444007BE054FDF0E0540460139024A8E49390BE
:104454006186F01207B590047BE054FBF0E0540849
:1044640060139024A9E493906186F01207B5900438
:104474007BE054F7F0E0541060139024AAE4939086
:104484006186F01207B590047BE054EFF0E054200D
:10449400600A1207B590047BE054DFF0A3E05401F6
:1044A400600D1209B31207BB90047CE054FEF07453
:1044B4000812162502470074EC12167F74F41216C3
:1044C4000F851882851983AC82AD837583817582CB
:1044D400D174041215229024A893F4600302464771
:1044E400907808E0C394025003024627740412161D
:1044F4005BAC82AD8375838175825B74081215226F
:104504008518828519838582128583137404121693
:104514005BAC82AD83750EFF750FFF7FFF7E007568
:104524000C48750D78801574086E70030245BB74D1
:10453400096E70030245BB740A6E607B850C82852C
:104544000D8378081214C78C828D83A909E50AC9E2
:10455400F88810741878081213F5E5104508F8C3A4
:10456400E098A3E099850C82850D8378081214C71E
:1045740040188C828D83741878081213F5E5104561
:1045840008F8E0C398F8A3E0801C741878081213A4
:10459400F5E5104508FAE9FB8C828D83E0F8A3E089
:1045A400F9EAC398F8EB99F9C3E8950EE9950F5029
:1045B40006880E890FEEFF0EE50C2404F50CE50DBC
:1045C4003400F50DEEC39413500302452B74FF65BC
:1045D4000E700474FF650F60238F0874027808124C
:1045E40015FC74482508F58274783509F583780834
:1045F4001214C7851282851383E508F0EC2402FCAB
:10460400ED3400FD851282851383A3858212858390
:1046140013740C12165BE5826C7003E5836D600302
:104624000245197508017509007808121892740278
:1046340012165BAC82AD837A2A7B091210EB7402EA
:10464400121625740C1216257F0C021751C082C055
:10465400839061AE7468F0A3746AF090624574FB51
:10466400F0A304F053F4FD43FE029007F57401F047
:104674009061A0E0643A90619A70237433F0A3745B
:1046840055F09061A0743AF0740164017009C2910C
:1046940090047D7467802890047D74618021743F48
:1046A400F0A3745AF09061A0747FF07401640170F7
:1046B40009D29190047D7471800590047D746A021E
:1046C4004381C082C0839007D3E0640170119007D6
:1046D400D9E064016019E07006A3E0640160109001
:1046E40007EAE06401700C9007F0E064017004795B
:1046F4000C800279008005E0F91222B1D083D082C7
:1047040002011FC082C0839007DD7425F09007DB8F
:104714007401F0A3E4F07A01FB120C0B9007C9E0DA
:10472400F8A3E0C82416F582E83400F58374D7F0C2
:10473400A37409F09007DAE0640170169007D9E0D9
:1047440070107901120C6B120C3B120C657900127B
:104754000C77024700C082C08374FA12160F9007C8
:10476400D2E0640170081209BF9007D2E4F075E149
:10477400F19007C9E0F8A3E0C82415F582E83400F5
:10478400F5837401F09007D4E0640170769081950C
:10479400C082851882851983AC82AD83758381D0EC
:1047A40082740612152275D90D9007CBE0C43333F9
:1047B40054C04403F5D978C9790788828983A3A3AF
:1047C400A3E0F5D988828983A3A882A983E864CF6A
:1047D4007003E9640770E3851882851983A882A9A8
:1047E4008388828983E0F5D9A3A882A983740612F9
:1047F400165BE582687003E5836970E575E1957978
:104804000180027900120C119010CC7427F0A3746B
:104814000BF0A3742DF0A3740BF0A37427F0A3740E
:104824000BF0A37427F0A3740BF0A374F1F0A3743A
:104834000AF0A374F1F0A3740AF0A37433F0A37420
:104844000BF09010DA74F1F0A3740AF0A374F1F091
:10485400A3740AF0A374F1F0A3740AF0A374F1F042
:10486400A3740AF0A374F1F0A3740AF0A374F1F032
:10487400A3740AF09007CBE0F97ACC7B07120BED16
:104884009007DDE0F91222B17901120C177AD67B78
:10489400BE7C897D8E120C2F7A557B557C557D000C
:1048A400120BF97900120C839007C9E0F8A3E0C851
:1048B4002414F582E83400F5837416F090047974B6
:1048C40005F0040244B574F712167F8908A808E8B5
:1048D40075F005A4C8AAF02AF974A928FE7404394D
:1048E400FF9007E2E0F97AE37B07120BED9007F003
:1048F400E0701A7900120C4D9007B8E0700479004A
:10490400800279017AB97B07120BF38005790112D1
:104914000C4D75E1F175D9239007E2E0C4333354AB
:10492400C04405F5D978E0790788828983A3A3A3D5
:10493400E0F5D988828983A3A882A983E864E67014
:1049440003E9640770E375D90075D90075D900755A
:10495400D90075D90075D900EEF8EFF9E82404FA06
:10496400E93400FBE82422F582E93400F583E0F51C
:10497400D988828983A3A882A983EA687002EB6933
:1049840070E2EEF8EFF9E824031AE93400FBE824B6
:1049940026F582E93400F583E0F5D988828983A37A
:1049A400A882A983EA687002EB6970E2EE242BF511
:1049B40082EF3400F583E0F5D9EE242CF582EF3450
:1049C40000F583E0F5D9EE242DF582EF3400F5836C
:1049D400E0F5D9EE242EF582EF3400F583E0F5D925
:1049E400EE242FF582EF3400F583E0F5D9EE243080
:1049F400F582EF3400F583E0F5D9EE2431F582EF4A
:104A04003400F583E0F5D9EE2432F582EF3400F575
:104A140083E0F5D9EE2433F582EF3400F583E0F535
:104A2400D9EEF8EFF9E82405FAE93400FBE8245D4F
:104A3400F582E93400F583E0F5D988828983A3A857
:104A440082A983EA687002EB6970E2EE2437F5828A
:104A5400EF3400F583E0541FF8EE242AF582EF3496
:104A640000F583E0C43354E048F5D975E19590101E
:104A7400CC74F7F0A3740AF0A374FDF0A3740AF0E5
:104A8400A374F1F0A3740AF0A374F1F0A3740AF010
:104A9400A374F1F0A3740AF0A374F1F0A3740AF000
:104AA400A37403F0A3740BF09010DA74F1F0A37400
:104AB4000AF0A374F1F0A3740AF0A374F1F0A374E0
:104AC4000AF0A374F1F0A3740AF0A374F1F0A374D0
:104AD4000AF0A374F1F0A3740AF09007EFE0F9125E
:104AE40022B17AD67BBE7C897D8E120C2F7A557BBF
:104AF400557C557D00120BF990600DE4F07901129C
:104B04000C839004797406F00250C374E812167F83
:104B14009007E0E0F8A3E0F5838882A3A3780C1261
:104B240014C79007F1E0FAF875F005A4C8ACF02CAE
:104B3400F974D728F582740439F583E0FEA3E0FF05
:104B4400EEC333FEEF33FF8E14F51575160075179B
:104B540000850C08850D09850E0A850F0B75100458
:104B64007511007512007513007808791012142D50
:104B7400780812188E850C08850D09850E0A850F94
:104B84000B7808791412142D780C7914121375E427
:104B9400F516F517780879141214668A0C750D0049
:104BA4007403780C1215FCE50D3395E0F50EF50F42
:104BB4007808790C12142D750CFF750DFF750EFF16
:104BC4007808790C12148EAA08AB09AC0A7D00127D
:104BD400225C74041216258A088B09A808A909C343
:104BE400EE98EF995006E82EF8E93FF9E890600E48
:104BF400F0E9A3F0EEA3F0EFA3F090600D74C1F020
:104C04007F10021751C082C0839007C9E0F8A3E067
:104C1400C82406F582E83400F583E4F0A3F0900795
:104C2400DD0246FBC082C0839007E0E0F8A3E0C841
:104C34002406F582E83400F583E4F0A3F09007EF4E
:104C44000246FB02011F74F612167F9061D0E0F851
:104C54007480C398FCEA2482F582EB3400F583E087
:104C64006004780480027800E8240EF8ECC39850BD
:104C740003024D767C0C9007FBE4F0EA2476F5827F
:104C8400EB3400F583E09007FCF0EA2477F8EB348A
:104C940000F988828983E09007FDF088828983A3E4
:104CA400E09007FEF0EA2479F8EB3400F988828971
:104CB40083E09007FFF088828983A3E0900800F0E6
:104CC400EA247BF8EB3400F988828983E0900801B8
:104CD400F088828983A3E0900802F0EA247DF8EB4F
:104CE4003400F988828983E0900803F088828983FC
:104CF400A3E0900804F0EA2474F8EB3400F98A8203
:104D04008B83A3A3A3A3A3E0FEA3E0FF88828983EC
:104D1400E02EF0A3E03FF088828983E0900805F05C
:104D240088828983A3E0900806F0EA2482F582EB66
:104D34003400F583E060177508FB750907780812DD
:104D440018927903120AE574021216257C10740174
:104D54002CF5D975D9037582FB758307ECFEE0F554
:104D6400D9A31EEE70F875E1957904120C3579011A
:104D74008002790002527374F612167F9061D0E0BB
:104D8400F87480C398FCEA2482F582EB3400F5833E
:104D9400E06004780480027800E8240AF8ECC39800
:104DA4005003024E6E7508089007FB7401F07CBF37
:104DB4007D0778FC79077E058C828D83E088828963
:104DC40083F08C828D83A3AC82AD8388828983A394
:104DD400A882A9831EEE70E0EA2480FCEB3400FD77
:104DE4008A828B83A3A3A3A3A3E0FEA3E0FF8C8208
:104DF4008D83E02EF0A3E03FF08C828D83E08882E7
:104E04008983F08C828D83A3AC82AD83888289836D
:104E1400A308A9838C828D83E088828983F0EA24A5
:104E240082F582EB3400F583E0601A7508FB75099E
:104E34000778081218927C087903120AE5740212A2
:104E4400162575080C74012508F5D975D9037582E2
:104E5400FB758307AE08E0F5D9A31EEE70F875E183
:104E6400957904120C357901800279000252737429
:104E7400F712167FEAFEEBFF9061D0E06003024F69
:104E84005A75D91875D90375D903EEF8EFF9E824E2
:104E940008FAE93400FBE8249BF582E93400F58341
:104EA400E0F5D988828983A3A882A983EA6870027D
:104EB400EB6970E2EE24A3F582EF3400F583E0F5AC
:104EC400D9EE24A4F582EF3400F583E0F5D9EE247D
:104ED40093F582EF3400F583E5822408F8E5833402
:104EE40000F9E0F5D9A3E865827003E9658370F2FF
:104EF400EE2487F582EF3400F583E5822404F8E597
:104F0400833400F9E0F5D9A3E865827003E9658389
:104F140070F275E1957908EE2493FAEF3400FB12F0
:104F24000A9D7904EE2487FAEF3400FB120A9D7976
:104F340004120C35EE246FF582EF3400F583E0F8AB
:104F4400A3E0F9EE2471F582EF3400F583E8F0A3D1
:104F5400E9F07901800279000250C374F612167FD9
:104F6400EAFEEBFF9007FB7406F07508FB75090772
:104F740078081218927C017903120AE57402121659
:104F84002575D90675D9037582FB758307E0F5D9B4
:104F9400A3E58264007004E583640870F075E1950C
:104FA400900479E06408701EEE246FF582EF3400FB
:104FB400F583E0F8A3E0F9EE2471F582EF3400F50F
:104FC40083E8F0A3E9F0790102527374F612167FB4
:104FD400EAFEEBFF9061D0E0705E9007FB740AF08C
:104FE4007508FB75090778081218927C0179031279
:104FF4000AE5740212162575D90675D9037582FB64
:10500400758307E0F5D9A3E58264007004E5836441
:105014000870F075E195EE246FF582EF3400F583A6
:10502400E0F8A3E0F9EE2471F582EF3400F583E8AB
:10503400F0A3E9F079018002790002527374F61248
:10504400167FEAFEEBFF9061D0E07066780190076E
:10505400FB740BF0900479E0640770197508FB7514
:10506400090778081218927C017903120AE5740280
:105074001216257805740128F5D975D9037582FBB4
:10508400758307E8FAE0F5D9A31AEA70F875E19593
:10509400EE246FF582EF3400F583E0F8A3E0F9EE37
:1050A4002471F582EF3400F583E8F0A3E9F0790187
:1050B40080027900025273F0EEA2E092AF79007F91
:1050C4000102175174F612167FEAFEEBFF9061D0CD
:1050D400E0F87480C398FAEE2482F582EF3400F588
:1050E40083E06004780480027800E8240BF8EAC3C3
:1050F40098500302519E7D099007FB7408F0EE243A
:10510400E4F8EF3400F97AFC7B077C088882898311
:10511400E08A828B83F088828983A3A882A9838A08
:10512400828B83A3AA82AB831CEC70E0EE2482F50D
:1051340082EF3400F583E0601D7508FB750907787C
:10514400081218927C097903EEFAEFFB120AE5744F
:10515400021216257D0D74012DF5D975D9037582BA
:10516400FB7583078D08E0F5D9A31508E50870F6EB
:1051740075E1957904120C35EE246FF582EF340055
:10518400F583E0F8A3E0F9EE2471F582EF3400F53D
:1051940083E8F0A3E9F07901800279000252737484
:1051A400F612167FEAFEEBFF9061D0E0F87480C33C
:1051B40098FAEE2482F582EF3400F583E0600478F7
:1051C4000480027800E82408F8EAC39850030252E5
:1051D4007178069007FB740CF0900496E09007FC3D
:1051E400F0900497E09007FDF0900498E09007FE9B
:1051F400F0900499E09007FFF090049AE090080082
:10520400F0EE2482F582EF3400F583E0601B75082C
:10521400FB75090778081218927C067903EEFA12D6
:105224000AE57402121625780A740128F5D975D98D
:10523400037582FB7583078808E0F5D9A31508E593
:105244000870F675E1957904120C35EE246FF58239
:10525400EF3400F583E0F8A3E0F9EE2471F582EF72
:105264003400F583E8F0A3E9F07901800279007F46
:105274000202175174F612167FEAFEEBFF9061D01A
:10528400E0F87480C398FAEE2482F582EF3400F5D6
:1052940083E06004780480027800E82404F8EAC318
:1052A40098500302535278029007FBE8F0EE24F67C
:1052B400F582EF3400F583E09007FCF0EE2482F5EC
:1052C40082EF3400F583E0601B7508FB75090778ED
:1052D400081218927C027903EEFA120AE57402129B
:1052E40016257806740128F5D975D9037582FB75DE
:1052F40083078808E0F5D9A31508E50870F675E179
:1053040095EE2473F582EF3400F583E4F0EE247F08
:10531400F582EF3400F583E4F0EE241DF582EF34DA
:1053240000F583E4F0A3F07904120C35EE240DF5B6
:1053340082EF3400F583E0F8A3E0F9EE2471F582FE
:10534400EF3400F583E8F0A3E9F0790180027900F5
:1053540002527374F612167F9061D0E0F87480C321
:1053640098FCEA2482F582EB3400F583E06004784B
:105374000480027800E82404F8ECC398405B7902C6
:105384009007FB7407F0EA24F7F582EB3400F58309
:10539400E09007FCF0EA2482F582EB3400F583E028
:1053A40060187508FB75090778081218927C0209C1
:1053B400120AE574021216257906740129F5D975C5
:1053C400D9037582FB758307E9F8E0F5D9A318E8DA
:1053D40070F875E19579018002790002527374F5D1
:1053E40012167FE9FCA2AFE433F50AC2AF7D008058
:1053F400010DEA246EF582EB3400F583E0F8EDC389
:1054040098501A8D08EA2508F8EB3400F9E8246A64
:10541400F582E93400F583E06C70D68024EA246ECA
:10542400F8EB3400F9E0FEEA2EFAEB3400FBEA2450
:105434006AF582EB3400F583ECF088828983E0041A
:10544400F0E50AA2E092AF7F0302175174F6121638
:105454007FA2AFE433FDC2AFEA246EF582EB3400E1
:10546400F583E014F07C0060368C08EA2508F8EB3C
:105474003400F9E8246BF582E93400F583E0C0E0F8
:10548400E8246AF582E93400F583D0E0F00CEA24DC
:105494006EF582EB3400F583E0F8ECC39840CAEA79
:1054A400246DF582EB3400F58374FFF0EA2469F58A
:1054B40082EB3400F583E4F0EDA2E092AF02527384
:1054C400C082C083E5A8F8C2AFEA246AF582EB344F
:1054D40000F583E9F0EA2469F582EB3400F583E40E
:1054E400F0E8A2E7A2E792AF02470074F312167F36
:1054F400EAFEEBFFECFAEDFB8A828B83A3A3A3A362
:10550400E0541FF0EE2436F582EF3400F583E4F026
:10551400F50AEEFCEFFD8A828B83E0C0E0EC245DAB
:10552400F582ED3400F583D0E0F0750B00E50A3325
:10553400333354F8F50C8A828B83E0F5087509003F
:10554400E50B78081215DDE508A2E0502FEE2436AD
:10555400F8EF3400F988828983E0F508EE2508F530
:1055640008EF3400F509E5082438F582E50934002C
:10557400F583E50CF088828983E004F0050B050CC3
:10558400E50BC3940840AF050A8A828B83A3AA82E1
:10559400AB838C828D83A3AC82AD83E50AC394056F
:1055A400500302551A7F0502175174F712167F90A3
:1055B40004A5E0640370030258947C0078A5790480
:1055C40088828983A3A3A3A3A3A3E06003025882D0
:1055D400ECF875F005A4C8AAF02AF974A928FA749D
:1055E4000439FB8A828B83A3A37401F08A828B83A0
:1055F400A3A3A3E4F0EC8A828B83A3A3A3A3F0EA7E
:105604002462F582EB3400F5837401F0EA2467F533
:1056140082EB3400F5837401F08A828B83A3A3A305
:10562400A3A3E4F0A3F08A828B83A3A3A3A3A3A3DD
:10563400A3F0A3F0EA240FF582EB3400F5837401A0
:10564400F0EA2435F582EB3400F583E4F0EA24181B
:10565400F582EB3400F583E4F0A3F0A3F0A3F0EAC1
:10566400241CF582EB3400F583E4F0EA241DF58272
:10567400EB3400F583E4F0A3F0EA247FF582EB3405
:1056840000F583E4F0EA2473F582EB3400F583E457
:10569400F0EA2468F582EB3400F5837480F0EA24A0
:1056A40069F582EB3400F583E4F0EA246EF582EBCD
:1056B4003400F583E4F0EA24ECF582EB3400F5835E
:1056C400E4F0EA24EDF582EB3400F583E4F0EA2417
:1056D400EEF582EB3400F583E4F0EA24EFF582EB97
:1056E4003400F583E4F0EA24F0F582EB3400F5832A
:1056F400E4F0A3F0EA24F2F582EB3400F583E4F05D
:10570400A3F0EA24F5F582EB3400F583E4F0EA240F
:1057140082F582EB3400F583E4F0EA24D2F582EBDF
:105724003400F583E4F0EA24D3F582EB3400F58306
:10573400E4F0EA24D4F582EB3400F583E4F0A3F03A
:10574400A3F0A3F0EA24D8F582EB3400F583E4F067
:10575400A3F0A3F0A3F0EA24DEF582EB3400F58392
:10576400E4F0EA24E0F582EB3400F583E4F0EA2483
:10577400DCF582EB3400F583E4F0EA24E1F582EB16
:105784003400F583E4F0EA24E2F582EB3400F58397
:10579400E4F0EA24F8F582EB3400F583E4F0A3F0B6
:1057A400EA24FAF582EB3400F583E4F0A3F0EA246A
:1057B400FCF582EB3400F583E4F0A3F0EA24FEF573
:1057C40082EB3400F583E4F0A3F0EAF8EBF9E82483
:1057D40004FCE93400FDE8246AF582E93400F58329
:1057E40074FFF088828983A3A882A983EC6870027D
:1057F400ED6970E2EAF8EBF97CBF7D078C828D835A
:10580400E0C0E0E8245DF582E93400F583D0E0F0FF
:105814008C828D83A3AC82AD8388828983A3A88282
:10582400A983EC64C47003ED640770D0EAF8EBF963
:105834007C8C7D048C828D83A3E0C0E0E824E4F5B5
:1058440082E93400F583D0E0F08C828D83A3AC82AE
:10585400AD8388828983A3A882A983EC64947003AE
:10586400ED640470CF9004A5E004F0640170258A0F
:10587400828B83A3A3A3A3E09004A7F080160CE873
:105884002405F8E93401F9ECC3940350030255C428
:105894007A007B000250C3C082C0838A828B83A3B8
:1058A400A3A3E0600F8A828B83A3A3A3E4F09004F4
:1058B400A6E014F09004A5E014F070069004A77418
:1058C400FFF08A828B83A3A3E4F09007C4E0700DF9
:1058D4009004A6E0640170057900120BFF024700F2
:1058E400C082C08378A5790488828983A3A3A3A3F3
:1058F400A3A3A3E4F088828983A3A3A3A3A3A3F00F
:10590400E82405F8E93401F9E864B47003E96407AC
:1059140070D69004A5E4F0A3F0A374FFF075E1F150
:1059240002470074F512167F750800750900750AA0
:10593400007EA97F048E828F83A3A3A3E0603DE54C
:10594400084509602F850882850983E0F8A3E0F5FE
:10595400838882A3A31218A58E828F83E0F8A3E024
:10596400F5838882A3A31214E51222037404121689
:1059740025E97008EEF8EFF988088909050AEE248C
:1059840005FEEF3401FFE50AC3940340A8850882AD
:10599400850983A3A3A3A3E0F902544B74F7121659
:1059A4007F78FF79FF7E007CA97D048C828D83A3A0
:1059B400A3A3E0606274FF68700374FF697011EC64
:1059C4002473F582ED3400F583E06401703A80219C
:1059D400EC2473F582ED3400F583E064017017EC78
:1059E4002479F582ED3400F583C3E098A3E099505F
:1059F40026EC24798015EC242EF582ED3400F58311
:105A0400C3E098A3E099500FEC242EF582ED340006
:105A1400F583E0F8A3E0F90EEC2405FCED3401FD78
:105A2400EEC394034085C3EA98EB994004E8FAE98D
:105A3400FB0250C374F612167FEAFEEBFFEE2463FA
:105A4400F582EF3400F583E0F8A3E0F9E849700348
:105A5400025ADDEE2463F8EF3400F97A007B00A2E9
:105A6400AFE433F508C2AF88828983E0FCA3E0FD8C
:105A7400EC4D603A88828983E0FAA3E0FB8A828B4A
:105A840083E0FCA3E0FD88828983ECF0A3EDF08A37
:105A9400828B83E4F0A3F088828983E0FCA3E0FD99
:105AA400EC4D700A88828983A3A3E4F0A3F0E5088F
:105AB400A2E092AF1211399007C5E004F09007C636
:105AC400E004F0EE2463F582EF3400F583E0F8A3FC
:105AD400E0F9E8496003025A578E828F83A3A3A397
:105AE400E0600F8E828F83A3A3A3E4F09004A6E06A
:105AF40014F09004A5E014F070069004A774FFF06D
:105B04008E828F83A3A3E4F09007C4E0700D900409
:105B1400A6E0640170057900120BFFEEFAEFFB12A8
:105B24000B6902527374F712167FEAFEEBFF8E8242
